{"contracts/Lottery.sol":{"Lottery":{"abi":[{"inputs":[{"internalType":"address","name":"vrfCoordinatorV2","type":"address"},{"internalType":"uint256","name":"entranceFee","type":"uint256"},{"internalType":"bytes32","name":"gasLane","type":"bytes32"},{"internalType":"uint64","name":"subscriptionId","type":"uint64"},{"internalType":"uint32","name":"callbackGasLimit","type":"uint32"},{"internalType":"uint256","name":"interval","type":"uint256"}],"stateMutability":"nonpayable","type":"constructor"},{"inputs":[],"name":"Lottery__NotEnoughETHEntered","type":"error"},{"inputs":[],"name":"Lottery__NotOpen","type":"error"},{"inputs":[],"name":"Lottery__TransferFailed","type":"error"},{"inputs":[{"internalType":"uint256","name":"currentBalance","type":"uint256"},{"internalType":"uint256","name":"numPlayers","type":"uint256"},{"internalType":"uint256","name":"raffleState","type":"uint256"}],"name":"Lottery__UpkeedNotNeeded","type":"error"},{"inputs":[{"internalType":"address","name":"have","type":"address"},{"internalType":"address","name":"want","type":"address"}],"name":"OnlyCoordinatorCanFulfill","type":"error"},{"anonymous":false,"inputs":[{"indexed":true,"internalType":"address","name":"player","type":"address"}],"name":"LotteryEnter","type":"event"},{"anonymous":false,"inputs":[{"indexed":true,"internalType":"uint256","name":"requesdId","type":"uint256"}],"name":"RequestedLotteryWinner","type":"event"},{"anonymous":false,"inputs":[{"indexed":true,"internalType":"address","name":"winner","type":"address"}],"name":"WinnerPicked","type":"event"},{"inputs":[],"name":"announceRandomWinner","outputs":[],"stateMutability":"nonpayable","type":"function"},{"inputs":[{"internalType":"bytes","name":"checkData","type":"bytes"}],"name":"checkUpkeep","outputs":[{"internalType":"bool","name":"upkeepNeeded","type":"bool"},{"internalType":"bytes","name":"performData","type":"bytes"}],"stateMutability":"view","type":"function"},{"inputs":[],"name":"enterLottery","outputs":[],"stateMutability":"payable","type":"function"},{"inputs":[],"name":"getEnterenceFee","outputs":[{"internalType":"uint256","name":"","type":"uint256"}],"stateMutability":"view","type":"function"},{"inputs":[],"name":"getInterval","outputs":[{"internalType":"uint256","name":"","type":"uint256"}],"stateMutability":"view","type":"function"},{"inputs":[],"name":"getLatestTimeStamp","outputs":[{"internalType":"uint256","name":"","type":"uint256"}],"stateMutability":"view","type":"function"},{"inputs":[],"name":"getLotteryState","outputs":[{"internalType":"enum Lottery.LotteryState","name":"","type":"uint8"}],"stateMutability":"view","type":"function"},{"inputs":[],"name":"getNumWord","outputs":[{"internalType":"uint256","name":"","type":"uint256"}],"stateMutability":"pure","type":"function"},{"inputs":[],"name":"getNumberOfPlayers","outputs":[{"internalType":"uint256","name":"","type":"uint256"}],"stateMutability":"view","type":"function"},{"inputs":[],"name":"getPlayer","outputs":[],"stateMutability":"nonpayable","type":"function"},{"inputs":[],"name":"getRecentWinner","outputs":[{"internalType":"address","name":"","type":"address"}],"stateMutability":"view","type":"function"},{"inputs":[],"name":"getRequestConformations","outputs":[{"internalType":"uint256","name":"","type":"uint256"}],"stateMutability":"pure","type":"function"},{"inputs":[{"internalType":"bytes","name":"","type":"bytes"}],"name":"performUpkeep","outputs":[],"stateMutability":"nonpayable","type":"function"},{"inputs":[],"name":"pickRandomWinner","outputs":[],"stateMutability":"nonpayable","type":"function"},{"inputs":[{"internalType":"uint256","name":"requestId","type":"uint256"},{"internalType":"uint256[]","name":"randomWords","type":"uint256[]"}],"name":"rawFulfillRandomWords","outputs":[],"stateMutability":"nonpayable","type":"function"}],"devdoc":{"author":"yana gupta","details":"This implements chainlink vrf v2 or chainlink keepers","kind":"dev","methods":{"checkUpkeep(bytes)":{"details":"To ensure that it is never called, you may want to add the cannotExecute modifier from KeeperBase to your implementation of this method.","params":{"checkData":"specified in the upkeep registration so it is always the same for a registered upkeep. This can easily be broken down into specific arguments using `abi.decode`, so multiple upkeeps can be registered on the same contract and easily differentiated by the contract."},"returns":{"performData":"bytes that the keeper should call performUpkeep with, if upkeep is needed. If you would like to encode data to decode later, try `abi.encode`.","upkeepNeeded":"boolean to indicate whether the keeper should call performUpkeep or not."}}},"title":"A simple Lottery Contract","version":1},"evm":{"bytecode":{"linkReferences":{},"object":"6101606040523480156200001257600080fd5b50604051620017f3380380620017f383398181016040528101906200003891906200028d565b858073ffffffffffffffffffffffffffffffffffffffff1660808173ffffffffffffffffffffffffffffffffffffffff1681525050508460a081815250508573ffffffffffffffffffffffffffffffffffffffff1660c08173ffffffffffffffffffffffffffffffffffffffff16815250508360e081815250508267ffffffffffffffff166101008167ffffffffffffffff16815250508163ffffffff166101208163ffffffff16815250506000600160146101000a81548160ff021916908360018111156200010d576200010c62000329565b5b021790555080610140818152505050505050505062000358565b600080fd5b600073ffffffffffffffffffffffffffffffffffffffff82169050919050565b600062000159826200012c565b9050919050565b6200016b816200014c565b81146200017757600080fd5b50565b6000815190506200018b8162000160565b92915050565b6000819050919050565b620001a68162000191565b8114620001b257600080fd5b50565b600081519050620001c6816200019b565b92915050565b6000819050919050565b620001e181620001cc565b8114620001ed57600080fd5b50565b6000815190506200020181620001d6565b92915050565b600067ffffffffffffffff82169050919050565b620002268162000207565b81146200023257600080fd5b50565b60008151905062000246816200021b565b92915050565b600063ffffffff82169050919050565b62000267816200024c565b81146200027357600080fd5b50565b60008151905062000287816200025c565b92915050565b60008060008060008060c08789031215620002ad57620002ac62000127565b5b6000620002bd89828a016200017a565b9650506020620002d089828a01620001b5565b9550506040620002e389828a01620001f0565b9450506060620002f689828a0162000235565b93505060806200030989828a0162000276565b92505060a06200031c89828a01620001b5565b9150509295509295509295565b7f4e487b7100000000000000000000000000000000000000000000000000000000600052602160045260246000fd5b60805160a05160c05160e05161010051610120516101405161142b620003c86000396000818161067001526106e00152600061053301526000610510015260006104ef015260006104b3015260008181610708015261072e0152600081816103320152610386015261142b6000f3fe6080604052600436106100e75760003560e01c80636e04ff0d1161008a578063c1af578511610059578063c1af5785146102ac578063ca7eaad1146102b6578063dae87955146102e1578063fd6673f5146102f8576100e7565b80636e04ff0d14610201578063898da2291461023f57806391ad27b414610256578063b675400d14610281576100e7565b80633308f42d116100c65780633308f42d1461016b5780634585e33b14610182578063473f1ddc146101ab5780636b68c03c146101d6576100e7565b8062ae0c3f146100ec5780631fe543e314610117578063320229eb14610140575b600080fd5b3480156100f857600080fd5b50610101610323565b60405161010e9190610ba7565b60405180910390f35b34801561012357600080fd5b5061013e60048036038101906101399190610d5b565b610330565b005b34801561014c57600080fd5b506101556103f0565b6040516101629190610ba7565b60405180910390f35b34801561017757600080fd5b506101806103fa565b005b34801561018e57600080fd5b506101a960048036038101906101a49190610e12565b6103fc565b005b3480156101b757600080fd5b506101c06105ec565b6040516101cd9190610ea0565b60405180910390f35b3480156101e257600080fd5b506101eb610616565b6040516101f89190610f32565b60405180910390f35b34801561020d57600080fd5b5061022860048036038101906102239190611002565b61062d565b6040516102369291906110e5565b60405180910390f35b34801561024b57600080fd5b506102546106da565b005b34801561026257600080fd5b5061026b6106dc565b6040516102789190610ba7565b60405180910390f35b34801561028d57600080fd5b50610296610704565b6040516102a39190610ba7565b60405180910390f35b6102b461072c565b005b3480156102c257600080fd5b506102cb61089b565b6040516102d89190610ba7565b60405180910390f35b3480156102ed57600080fd5b506102f66108a8565b005b34801561030457600080fd5b5061030d6108aa565b60405161031a9190610ba7565b60405180910390f35b6000600361ffff16905090565b7f000000000000000000000000000000000000000000000000000000000000000073ffffffffffffffffffffffffffffffffffffffff163373ffffffffffffffffffffffffffffffffffffffff16146103e257337f00000000000000000000000000000000000000000000000000000000000000006040517f1cf993f40000000000000000000000000000000000000000000000000000000081526004016103d9929190611115565b60405180910390fd5b6103ec82826108b6565b5050565b6000600254905090565b565b60006104166040518060200160405280600081525061062d565b509050806104855747600080549050600160149054906101000a900460ff16600181111561044757610446610ebb565b5b6040517f36d34a4a00000000000000000000000000000000000000000000000000000000815260040161047c9392919061113e565b60405180910390fd5b60018060146101000a81548160ff021916908360018111156104aa576104a9610ebb565b5b021790555060007f000000000000000000000000000000000000000000000000000000000000000073ffffffffffffffffffffffffffffffffffffffff16635d3b1d307f00000000000000000000000000000000000000000000000000000000000000007f000000000000000000000000000000000000000000000000000000000000000060037f000000000000000000000000000000000000000000000000000000000000000060016040518663ffffffff1660e01b8152600401610574959493929190611228565b6020604051808303816000875af1158015610593573d6000803e3d6000fd5b505050506040513d601f19601f820116820180604052508101906105b79190611290565b9050807febf56642252004c18a776f30d528e7a0ce8c5db14b6596fb6550f630c8a24c6c60405160405180910390a250505050565b6000600160009054906101000a900473ffffffffffffffffffffffffffffffffffffffff16905090565b6000600160149054906101000a900460ff16905090565b600060606000600160149054906101000a900460ff16600181111561065557610654610ebb565b5b6000600181111561066957610668610ebb565b5b14905060007f00000000000000000000000000000000000000000000000000000000000000006002544261069d91906112ec565b119050600080600080549050119050600080471190508380156106bd5750825b80156106c65750815b80156106cf5750805b955050505050915091565b565b60007f0000000000000000000000000000000000000000000000000000000000000000905090565b60007f0000000000000000000000000000000000000000000000000000000000000000905090565b7f0000000000000000000000000000000000000000000000000000000000000000341015610786576040517fec269fd100000000000000000000000000000000000000000000000000000000815260040160405180910390fd5b6000600181111561079a57610799610ebb565b5b600160149054906101000a900460ff1660018111156107bc576107bb610ebb565b5b146107f3576040517fe76be6fc00000000000000000000000000000000000000000000000000000000815260040160405180910390fd5b6000339080600181540180825580915050600190039060005260206000200160009091909190916101000a81548173ffffffffffffffffffffffffffffffffffffffff021916908373ffffffffffffffffffffffffffffffffffffffff1602179055503373ffffffffffffffffffffffffffffffffffffffff167f1d64fb5ba9f2548c5b98468d58f25b87b9e866afee0122e92d9fe722bf85076c60405160405180910390a2565b6000600161ffff16905090565b565b60008080549050905090565b60008080549050826000815181106108d1576108d0611320565b5b60200260200101516108e3919061137e565b905060008082815481106108fa576108f9611320565b5b9060005260206000200160009054906101000a900473ffffffffffffffffffffffffffffffffffffffff16905080600160006101000a81548173ffffffffffffffffffffffffffffffffffffffff021916908373ffffffffffffffffffffffffffffffffffffffff1602179055506000600160146101000a81548160ff0219169083600181111561098e5761098d610ebb565b5b0217905550600067ffffffffffffffff8111156109ae576109ad610c18565b5b6040519080825280602002602001820160405280156109dc5781602001602082028036833780820191505090505b50600090805190602001906109f2929190610ae7565b504260028190555060008173ffffffffffffffffffffffffffffffffffffffff1647604051610a20906113e0565b60006040518083038185875af1925050503d8060008114610a5d576040519150601f19603f3d011682016040523d82523d6000602084013e610a62565b606091505b5050905080610a9d576040517f1c94012000000000000000000000000000000000000000000000000000000000815260040160405180910390fd5b8173ffffffffffffffffffffffffffffffffffffffff167f5b690ec4a06fe979403046eaeea5b3ce38524683c3001f662c8b5a829632f7df60405160405180910390a25050505050565b828054828255906000526020600020908101928215610b60579160200282015b82811115610b5f5782518260006101000a81548173ffffffffffffffffffffffffffffffffffffffff021916908373ffffffffffffffffffffffffffffffffffffffff16021790555091602001919060010190610b07565b5b509050610b6d9190610b71565b5090565b5b80821115610b8a576000816000905550600101610b72565b5090565b6000819050919050565b610ba181610b8e565b82525050565b6000602082019050610bbc6000830184610b98565b92915050565b6000604051905090565b600080fd5b600080fd5b610bdf81610b8e565b8114610bea57600080fd5b50565b600081359050610bfc81610bd6565b92915050565b600080fd5b6000601f19601f8301169050919050565b7f4e487b7100000000000000000000000000000000000000000000000000000000600052604160045260246000fd5b610c5082610c07565b810181811067ffffffffffffffff82111715610c6f57610c6e610c18565b5b80604052505050565b6000610c82610bc2565b9050610c8e8282610c47565b919050565b600067ffffffffffffffff821115610cae57610cad610c18565b5b602082029050602081019050919050565b600080fd5b6000610cd7610cd284610c93565b610c78565b90508083825260208201905060208402830185811115610cfa57610cf9610cbf565b5b835b81811015610d235780610d0f8882610bed565b845260208401935050602081019050610cfc565b5050509392505050565b600082601f830112610d4257610d41610c02565b5b8135610d52848260208601610cc4565b91505092915050565b60008060408385031215610d7257610d71610bcc565b5b6000610d8085828601610bed565b925050602083013567ffffffffffffffff811115610da157610da0610bd1565b5b610dad85828601610d2d565b9150509250929050565b600080fd5b60008083601f840112610dd257610dd1610c02565b5b8235905067ffffffffffffffff811115610def57610dee610db7565b5b602083019150836001820283011115610e0b57610e0a610cbf565b5b9250929050565b60008060208385031215610e2957610e28610bcc565b5b600083013567ffffffffffffffff811115610e4757610e46610bd1565b5b610e5385828601610dbc565b92509250509250929050565b600073ffffffffffffffffffffffffffffffffffffffff82169050919050565b6000610e8a82610e5f565b9050919050565b610e9a81610e7f565b82525050565b6000602082019050610eb56000830184610e91565b92915050565b7f4e487b7100000000000000000000000000000000000000000000000000000000600052602160045260246000fd5b60028110610efb57610efa610ebb565b5b50565b6000819050610f0c82610eea565b919050565b6000610f1c82610efe565b9050919050565b610f2c81610f11565b82525050565b6000602082019050610f476000830184610f23565b92915050565b600080fd5b600067ffffffffffffffff821115610f6d57610f6c610c18565b5b610f7682610c07565b9050602081019050919050565b82818337600083830152505050565b6000610fa5610fa084610f52565b610c78565b905082815260208101848484011115610fc157610fc0610f4d565b5b610fcc848285610f83565b509392505050565b600082601f830112610fe957610fe8610c02565b5b8135610ff9848260208601610f92565b91505092915050565b60006020828403121561101857611017610bcc565b5b600082013567ffffffffffffffff81111561103657611035610bd1565b5b61104284828501610fd4565b91505092915050565b60008115159050919050565b6110608161104b565b82525050565b600081519050919050565b600082825260208201905092915050565b60005b838110156110a0578082015181840152602081019050611085565b60008484015250505050565b60006110b782611066565b6110c18185611071565b93506110d1818560208601611082565b6110da81610c07565b840191505092915050565b60006040820190506110fa6000830185611057565b818103602083015261110c81846110ac565b90509392505050565b600060408201905061112a6000830185610e91565b6111376020830184610e91565b9392505050565b60006060820190506111536000830186610b98565b6111606020830185610b98565b61116d6040830184610b98565b949350505050565b6000819050919050565b61118881611175565b82525050565b600067ffffffffffffffff82169050919050565b6111ab8161118e565b82525050565b600061ffff82169050919050565b6111c8816111b1565b82525050565b600063ffffffff82169050919050565b6111e7816111ce565b82525050565b6000819050919050565b600061121261120d611208846111b1565b6111ed565b6111ce565b9050919050565b611222816111f7565b82525050565b600060a08201905061123d600083018861117f565b61124a60208301876111a2565b61125760408301866111bf565b61126460608301856111de565b6112716080830184611219565b9695505050505050565b60008151905061128a81610bd6565b92915050565b6000602082840312156112a6576112a5610bcc565b5b60006112b48482850161127b565b91505092915050565b7f4e487b7100000000000000000000000000000000000000000000000000000000600052601160045260246000fd5b60006112f782610b8e565b915061130283610b8e565b925082820390508181111561131a576113196112bd565b5b92915050565b7f4e487b7100000000000000000000000000000000000000000000000000000000600052603260045260246000fd5b7f4e487b7100000000000000000000000000000000000000000000000000000000600052601260045260246000fd5b600061138982610b8e565b915061139483610b8e565b9250826113a4576113a361134f565b5b828206905092915050565b600081905092915050565b50565b60006113ca6000836113af565b91506113d5826113ba565b600082019050919050565b60006113eb826113bd565b915081905091905056fea26469706673582212209f90a95f1ed7c652ce0ad7acfe7ef56588ec09c41f1c1b6b3e209a58fb09008164736f6c63430008110033","opcodes":"PUSH2 0x160 PUSH1 0x40 MSTORE CALLVALUE DUP1 ISZERO PUSH3 0x12 JUMPI PUSH1 0x0 DUP1 REVERT JUMPDEST POP PUSH1 0x40 MLOAD PUSH3 0x17F3 CODESIZE SUB DUP1 PUSH3 0x17F3 DUP4 CODECOPY DUP2 DUP2 ADD PUSH1 0x40 MSTORE DUP2 ADD SWAP1 PUSH3 0x38 SWAP2 SWAP1 PUSH3 0x28D JUMP JUMPDEST DUP6 DUP1 PUSH20 0xFFFFFFFFFFFFFFFFFFFFFFFFFFFFFFFFFFFFFFFF AND PUSH1 0x80 DUP2 PUSH20 0xFFFFFFFFFFFFFFFFFFFFFFFFFFFFFFFFFFFFFFFF AND DUP2 MSTORE POP POP POP DUP5 PUSH1 0xA0 DUP2 DUP2 MSTORE POP POP DUP6 PUSH20 0xFFFFFFFFFFFFFFFFFFFFFFFFFFFFFFFFFFFFFFFF AND PUSH1 0xC0 DUP2 PUSH20 0xFFFFFFFFFFFFFFFFFFFFFFFFFFFFFFFFFFFFFFFF AND DUP2 MSTORE POP POP DUP4 PUSH1 0xE0 DUP2 DUP2 MSTORE POP POP DUP3 PUSH8 0xFFFFFFFFFFFFFFFF AND PUSH2 0x100 DUP2 PUSH8 0xFFFFFFFFFFFFFFFF AND DUP2 MSTORE POP POP DUP2 PUSH4 0xFFFFFFFF AND PUSH2 0x120 DUP2 PUSH4 0xFFFFFFFF AND DUP2 MSTORE POP POP PUSH1 0x0 PUSH1 0x1 PUSH1 0x14 PUSH2 0x100 EXP DUP2 SLOAD DUP2 PUSH1 0xFF MUL NOT AND SWAP1 DUP4 PUSH1 0x1 DUP2 GT ISZERO PUSH3 0x10D JUMPI PUSH3 0x10C PUSH3 0x329 JUMP JUMPDEST JUMPDEST MUL OR SWAP1 SSTORE POP DUP1 PUSH2 0x140 DUP2 DUP2 MSTORE POP POP POP POP POP POP POP POP PUSH3 0x358 JUMP JUMPDEST PUSH1 0x0 DUP1 REVERT JUMPDEST PUSH1 0x0 PUSH20 0xFFFFFFFFFFFFFFFFFFFFFFFFFFFFFFFFFFFFFFFF DUP3 AND SWAP1 POP SWAP2 SWAP1 POP JUMP JUMPDEST PUSH1 0x0 PUSH3 0x159 DUP3 PUSH3 0x12C JUMP JUMPDEST SWAP1 POP SWAP2 SWAP1 POP JUMP JUMPDEST PUSH3 0x16B DUP2 PUSH3 0x14C JUMP JUMPDEST DUP2 EQ PUSH3 0x177 JUMPI PUSH1 0x0 DUP1 REVERT JUMPDEST POP JUMP JUMPDEST PUSH1 0x0 DUP2 MLOAD SWAP1 POP PUSH3 0x18B DUP2 PUSH3 0x160 JUMP JUMPDEST SWAP3 SWAP2 POP POP JUMP JUMPDEST PUSH1 0x0 DUP2 SWAP1 POP SWAP2 SWAP1 POP JUMP JUMPDEST PUSH3 0x1A6 DUP2 PUSH3 0x191 JUMP JUMPDEST DUP2 EQ PUSH3 0x1B2 JUMPI PUSH1 0x0 DUP1 REVERT JUMPDEST POP JUMP JUMPDEST PUSH1 0x0 DUP2 MLOAD SWAP1 POP PUSH3 0x1C6 DUP2 PUSH3 0x19B JUMP JUMPDEST SWAP3 SWAP2 POP POP JUMP JUMPDEST PUSH1 0x0 DUP2 SWAP1 POP SWAP2 SWAP1 POP JUMP JUMPDEST PUSH3 0x1E1 DUP2 PUSH3 0x1CC JUMP JUMPDEST DUP2 EQ PUSH3 0x1ED JUMPI PUSH1 0x0 DUP1 REVERT JUMPDEST POP JUMP JUMPDEST PUSH1 0x0 DUP2 MLOAD SWAP1 POP PUSH3 0x201 DUP2 PUSH3 0x1D6 JUMP JUMPDEST SWAP3 SWAP2 POP POP JUMP JUMPDEST PUSH1 0x0 PUSH8 0xFFFFFFFFFFFFFFFF DUP3 AND SWAP1 POP SWAP2 SWAP1 POP JUMP JUMPDEST PUSH3 0x226 DUP2 PUSH3 0x207 JUMP JUMPDEST DUP2 EQ PUSH3 0x232 JUMPI PUSH1 0x0 DUP1 REVERT JUMPDEST POP JUMP JUMPDEST PUSH1 0x0 DUP2 MLOAD SWAP1 POP PUSH3 0x246 DUP2 PUSH3 0x21B JUMP JUMPDEST SWAP3 SWAP2 POP POP JUMP JUMPDEST PUSH1 0x0 PUSH4 0xFFFFFFFF DUP3 AND SWAP1 POP SWAP2 SWAP1 POP JUMP JUMPDEST PUSH3 0x267 DUP2 PUSH3 0x24C JUMP JUMPDEST DUP2 EQ PUSH3 0x273 JUMPI PUSH1 0x0 DUP1 REVERT JUMPDEST POP JUMP JUMPDEST PUSH1 0x0 DUP2 MLOAD SWAP1 POP PUSH3 0x287 DUP2 PUSH3 0x25C JUMP JUMPDEST SWAP3 SWAP2 POP POP JUMP JUMPDEST PUSH1 0x0 DUP1 PUSH1 0x0 DUP1 PUSH1 0x0 DUP1 PUSH1 0xC0 DUP8 DUP10 SUB SLT ISZERO PUSH3 0x2AD JUMPI PUSH3 0x2AC PUSH3 0x127 JUMP JUMPDEST JUMPDEST PUSH1 0x0 PUSH3 0x2BD DUP10 DUP3 DUP11 ADD PUSH3 0x17A JUMP JUMPDEST SWAP7 POP POP PUSH1 0x20 PUSH3 0x2D0 DUP10 DUP3 DUP11 ADD PUSH3 0x1B5 JUMP JUMPDEST SWAP6 POP POP PUSH1 0x40 PUSH3 0x2E3 DUP10 DUP3 DUP11 ADD PUSH3 0x1F0 JUMP JUMPDEST SWAP5 POP POP PUSH1 0x60 PUSH3 0x2F6 DUP10 DUP3 DUP11 ADD PUSH3 0x235 JUMP JUMPDEST SWAP4 POP POP PUSH1 0x80 PUSH3 0x309 DUP10 DUP3 DUP11 ADD PUSH3 0x276 JUMP JUMPDEST SWAP3 POP POP PUSH1 0xA0 PUSH3 0x31C DUP10 DUP3 DUP11 ADD PUSH3 0x1B5 JUMP JUMPDEST SWAP2 POP POP SWAP3 SWAP6 POP SWAP3 SWAP6 POP SWAP3 SWAP6 JUMP JUMPDEST PUSH32 0x4E487B7100000000000000000000000000000000000000000000000000000000 PUSH1 0x0 MSTORE PUSH1 0x21 PUSH1 0x4 MSTORE PUSH1 0x24 PUSH1 0x0 REVERT JUMPDEST PUSH1 0x80 MLOAD PUSH1 0xA0 MLOAD PUSH1 0xC0 MLOAD PUSH1 0xE0 MLOAD PUSH2 0x100 MLOAD PUSH2 0x120 MLOAD PUSH2 0x140 MLOAD PUSH2 0x142B PUSH3 0x3C8 PUSH1 0x0 CODECOPY PUSH1 0x0 DUP2 DUP2 PUSH2 0x670 ADD MSTORE PUSH2 0x6E0 ADD MSTORE PUSH1 0x0 PUSH2 0x533 ADD MSTORE PUSH1 0x0 PUSH2 0x510 ADD MSTORE PUSH1 0x0 PUSH2 0x4EF ADD MSTORE PUSH1 0x0 PUSH2 0x4B3 ADD MSTORE PUSH1 0x0 DUP2 DUP2 PUSH2 0x708 ADD MSTORE PUSH2 0x72E ADD MSTORE PUSH1 0x0 DUP2 DUP2 PUSH2 0x332 ADD MSTORE PUSH2 0x386 ADD MSTORE PUSH2 0x142B PUSH1 0x0 RETURN INVALID PUSH1 0x80 PUSH1 0x40 MSTORE PUSH1 0x4 CALLDATASIZE LT PUSH2 0xE7 JUMPI PUSH1 0x0 CALLDATALOAD PUSH1 0xE0 SHR DUP1 PUSH4 0x6E04FF0D GT PUSH2 0x8A JUMPI DUP1 PUSH4 0xC1AF5785 GT PUSH2 0x59 JUMPI DUP1 PUSH4 0xC1AF5785 EQ PUSH2 0x2AC JUMPI DUP1 PUSH4 0xCA7EAAD1 EQ PUSH2 0x2B6 JUMPI DUP1 PUSH4 0xDAE87955 EQ PUSH2 0x2E1 JUMPI DUP1 PUSH4 0xFD6673F5 EQ PUSH2 0x2F8 JUMPI PUSH2 0xE7 JUMP JUMPDEST DUP1 PUSH4 0x6E04FF0D EQ PUSH2 0x201 JUMPI DUP1 PUSH4 0x898DA229 EQ PUSH2 0x23F JUMPI DUP1 PUSH4 0x91AD27B4 EQ PUSH2 0x256 JUMPI DUP1 PUSH4 0xB675400D EQ PUSH2 0x281 JUMPI PUSH2 0xE7 JUMP JUMPDEST DUP1 PUSH4 0x3308F42D GT PUSH2 0xC6 JUMPI DUP1 PUSH4 0x3308F42D EQ PUSH2 0x16B JUMPI DUP1 PUSH4 0x4585E33B EQ PUSH2 0x182 JUMPI DUP1 PUSH4 0x473F1DDC EQ PUSH2 0x1AB JUMPI DUP1 PUSH4 0x6B68C03C EQ PUSH2 0x1D6 JUMPI PUSH2 0xE7 JUMP JUMPDEST DUP1 PUSH3 0xAE0C3F EQ PUSH2 0xEC JUMPI DUP1 PUSH4 0x1FE543E3 EQ PUSH2 0x117 JUMPI DUP1 PUSH4 0x320229EB EQ PUSH2 0x140 JUMPI JUMPDEST PUSH1 0x0 DUP1 REVERT JUMPDEST CALLVALUE DUP1 ISZERO PUSH2 0xF8 JUMPI PUSH1 0x0 DUP1 REVERT JUMPDEST POP PUSH2 0x101 PUSH2 0x323 JUMP JUMPDEST PUSH1 0x40 MLOAD PUSH2 0x10E SWAP2 SWAP1 PUSH2 0xBA7 JUMP JUMPDEST PUSH1 0x40 MLOAD DUP1 SWAP2 SUB SWAP1 RETURN JUMPDEST CALLVALUE DUP1 ISZERO PUSH2 0x123 JUMPI PUSH1 0x0 DUP1 REVERT JUMPDEST POP PUSH2 0x13E PUSH1 0x4 DUP1 CALLDATASIZE SUB DUP2 ADD SWAP1 PUSH2 0x139 SWAP2 SWAP1 PUSH2 0xD5B JUMP JUMPDEST PUSH2 0x330 JUMP JUMPDEST STOP JUMPDEST CALLVALUE DUP1 ISZERO PUSH2 0x14C JUMPI PUSH1 0x0 DUP1 REVERT JUMPDEST POP PUSH2 0x155 PUSH2 0x3F0 JUMP JUMPDEST PUSH1 0x40 MLOAD PUSH2 0x162 SWAP2 SWAP1 PUSH2 0xBA7 JUMP JUMPDEST PUSH1 0x40 MLOAD DUP1 SWAP2 SUB SWAP1 RETURN JUMPDEST CALLVALUE DUP1 ISZERO PUSH2 0x177 JUMPI PUSH1 0x0 DUP1 REVERT JUMPDEST POP PUSH2 0x180 PUSH2 0x3FA JUMP JUMPDEST STOP JUMPDEST CALLVALUE DUP1 ISZERO PUSH2 0x18E JUMPI PUSH1 0x0 DUP1 REVERT JUMPDEST POP PUSH2 0x1A9 PUSH1 0x4 DUP1 CALLDATASIZE SUB DUP2 ADD SWAP1 PUSH2 0x1A4 SWAP2 SWAP1 PUSH2 0xE12 JUMP JUMPDEST PUSH2 0x3FC JUMP JUMPDEST STOP JUMPDEST CALLVALUE DUP1 ISZERO PUSH2 0x1B7 JUMPI PUSH1 0x0 DUP1 REVERT JUMPDEST POP PUSH2 0x1C0 PUSH2 0x5EC JUMP JUMPDEST PUSH1 0x40 MLOAD PUSH2 0x1CD SWAP2 SWAP1 PUSH2 0xEA0 JUMP JUMPDEST PUSH1 0x40 MLOAD DUP1 SWAP2 SUB SWAP1 RETURN JUMPDEST CALLVALUE DUP1 ISZERO PUSH2 0x1E2 JUMPI PUSH1 0x0 DUP1 REVERT JUMPDEST POP PUSH2 0x1EB PUSH2 0x616 JUMP JUMPDEST PUSH1 0x40 MLOAD PUSH2 0x1F8 SWAP2 SWAP1 PUSH2 0xF32 JUMP JUMPDEST PUSH1 0x40 MLOAD DUP1 SWAP2 SUB SWAP1 RETURN JUMPDEST CALLVALUE DUP1 ISZERO PUSH2 0x20D JUMPI PUSH1 0x0 DUP1 REVERT JUMPDEST POP PUSH2 0x228 PUSH1 0x4 DUP1 CALLDATASIZE SUB DUP2 ADD SWAP1 PUSH2 0x223 SWAP2 SWAP1 PUSH2 0x1002 JUMP JUMPDEST PUSH2 0x62D JUMP JUMPDEST PUSH1 0x40 MLOAD PUSH2 0x236 SWAP3 SWAP2 SWAP1 PUSH2 0x10E5 JUMP JUMPDEST PUSH1 0x40 MLOAD DUP1 SWAP2 SUB SWAP1 RETURN JUMPDEST CALLVALUE DUP1 ISZERO PUSH2 0x24B JUMPI PUSH1 0x0 DUP1 REVERT JUMPDEST POP PUSH2 0x254 PUSH2 0x6DA JUMP JUMPDEST STOP JUMPDEST CALLVALUE DUP1 ISZERO PUSH2 0x262 JUMPI PUSH1 0x0 DUP1 REVERT JUMPDEST POP PUSH2 0x26B PUSH2 0x6DC JUMP JUMPDEST PUSH1 0x40 MLOAD PUSH2 0x278 SWAP2 SWAP1 PUSH2 0xBA7 JUMP JUMPDEST PUSH1 0x40 MLOAD DUP1 SWAP2 SUB SWAP1 RETURN JUMPDEST CALLVALUE DUP1 ISZERO PUSH2 0x28D JUMPI PUSH1 0x0 DUP1 REVERT JUMPDEST POP PUSH2 0x296 PUSH2 0x704 JUMP JUMPDEST PUSH1 0x40 MLOAD PUSH2 0x2A3 SWAP2 SWAP1 PUSH2 0xBA7 JUMP JUMPDEST PUSH1 0x40 MLOAD DUP1 SWAP2 SUB SWAP1 RETURN JUMPDEST PUSH2 0x2B4 PUSH2 0x72C JUMP JUMPDEST STOP JUMPDEST CALLVALUE DUP1 ISZERO PUSH2 0x2C2 JUMPI PUSH1 0x0 DUP1 REVERT JUMPDEST POP PUSH2 0x2CB PUSH2 0x89B JUMP JUMPDEST PUSH1 0x40 MLOAD PUSH2 0x2D8 SWAP2 SWAP1 PUSH2 0xBA7 JUMP JUMPDEST PUSH1 0x40 MLOAD DUP1 SWAP2 SUB SWAP1 RETURN JUMPDEST CALLVALUE DUP1 ISZERO PUSH2 0x2ED JUMPI PUSH1 0x0 DUP1 REVERT JUMPDEST POP PUSH2 0x2F6 PUSH2 0x8A8 JUMP JUMPDEST STOP JUMPDEST CALLVALUE DUP1 ISZERO PUSH2 0x304 JUMPI PUSH1 0x0 DUP1 REVERT JUMPDEST POP PUSH2 0x30D PUSH2 0x8AA JUMP JUMPDEST PUSH1 0x40 MLOAD PUSH2 0x31A SWAP2 SWAP1 PUSH2 0xBA7 JUMP JUMPDEST PUSH1 0x40 MLOAD DUP1 SWAP2 SUB SWAP1 RETURN JUMPDEST PUSH1 0x0 PUSH1 0x3 PUSH2 0xFFFF AND SWAP1 POP SWAP1 JUMP JUMPDEST PUSH32 0x0 PUSH20 0xFFFFFFFFFFFFFFFFFFFFFFFFFFFFFFFFFFFFFFFF AND CALLER PUSH20 0xFFFFFFFFFFFFFFFFFFFFFFFFFFFFFFFFFFFFFFFF AND EQ PUSH2 0x3E2 JUMPI CALLER PUSH32 0x0 PUSH1 0x40 MLOAD PUSH32 0x1CF993F400000000000000000000000000000000000000000000000000000000 DUP2 MSTORE PUSH1 0x4 ADD PUSH2 0x3D9 SWAP3 SWAP2 SWAP1 PUSH2 0x1115 JUMP JUMPDEST PUSH1 0x40 MLOAD DUP1 SWAP2 SUB SWAP1 REVERT JUMPDEST PUSH2 0x3EC DUP3 DUP3 PUSH2 0x8B6 JUMP JUMPDEST POP POP JUMP JUMPDEST PUSH1 0x0 PUSH1 0x2 SLOAD SWAP1 POP SWAP1 JUMP JUMPDEST JUMP JUMPDEST PUSH1 0x0 PUSH2 0x416 PUSH1 0x40 MLOAD DUP1 PUSH1 0x20 ADD PUSH1 0x40 MSTORE DUP1 PUSH1 0x0 DUP2 MSTORE POP PUSH2 0x62D JUMP JUMPDEST POP SWAP1 POP DUP1 PUSH2 0x485 JUMPI SELFBALANCE PUSH1 0x0 DUP1 SLOAD SWAP1 POP PUSH1 0x1 PUSH1 0x14 SWAP1 SLOAD SWAP1 PUSH2 0x100 EXP SWAP1 DIV PUSH1 0xFF AND PUSH1 0x1 DUP2 GT ISZERO PUSH2 0x447 JUMPI PUSH2 0x446 PUSH2 0xEBB JUMP JUMPDEST JUMPDEST PUSH1 0x40 MLOAD PUSH32 0x36D34A4A00000000000000000000000000000000000000000000000000000000 DUP2 MSTORE PUSH1 0x4 ADD PUSH2 0x47C SWAP4 SWAP3 SWAP2 SWAP1 PUSH2 0x113E JUMP JUMPDEST PUSH1 0x40 MLOAD DUP1 SWAP2 SUB SWAP1 REVERT JUMPDEST PUSH1 0x1 DUP1 PUSH1 0x14 PUSH2 0x100 EXP DUP2 SLOAD DUP2 PUSH1 0xFF MUL NOT AND SWAP1 DUP4 PUSH1 0x1 DUP2 GT ISZERO PUSH2 0x4AA JUMPI PUSH2 0x4A9 PUSH2 0xEBB JUMP JUMPDEST JUMPDEST MUL OR SWAP1 SSTORE POP PUSH1 0x0 PUSH32 0x0 PUSH20 0xFFFFFFFFFFFFFFFFFFFFFFFFFFFFFFFFFFFFFFFF AND PUSH4 0x5D3B1D30 PUSH32 0x0 PUSH32 0x0 PUSH1 0x3 PUSH32 0x0 PUSH1 0x1 PUSH1 0x40 MLOAD DUP7 PUSH4 0xFFFFFFFF AND PUSH1 0xE0 SHL DUP2 MSTORE PUSH1 0x4 ADD PUSH2 0x574 SWAP6 SWAP5 SWAP4 SWAP3 SWAP2 SWAP1 PUSH2 0x1228 JUMP JUMPDEST PUSH1 0x20 PUSH1 0x40 MLOAD DUP1 DUP4 SUB DUP2 PUSH1 0x0 DUP8 GAS CALL ISZERO DUP1 ISZERO PUSH2 0x593 JUMPI RETURNDATASIZE PUSH1 0x0 DUP1 RETURNDATACOPY RETURNDATASIZE PUSH1 0x0 REVERT JUMPDEST POP POP POP POP PUSH1 0x40 MLOAD RETURNDATASIZE PUSH1 0x1F NOT PUSH1 0x1F DUP3 ADD AND DUP3 ADD DUP1 PUSH1 0x40 MSTORE POP DUP2 ADD SWAP1 PUSH2 0x5B7 SWAP2 SWAP1 PUSH2 0x1290 JUMP JUMPDEST SWAP1 POP DUP1 PUSH32 0xEBF56642252004C18A776F30D528E7A0CE8C5DB14B6596FB6550F630C8A24C6C PUSH1 0x40 MLOAD PUSH1 0x40 MLOAD DUP1 SWAP2 SUB SWAP1 LOG2 POP POP POP POP JUMP JUMPDEST PUSH1 0x0 PUSH1 0x1 PUSH1 0x0 SWAP1 SLOAD SWAP1 PUSH2 0x100 EXP SWAP1 DIV PUSH20 0xFFFFFFFFFFFFFFFFFFFFFFFFFFFFFFFFFFFFFFFF AND SWAP1 POP SWAP1 JUMP JUMPDEST PUSH1 0x0 PUSH1 0x1 PUSH1 0x14 SWAP1 SLOAD SWAP1 PUSH2 0x100 EXP SWAP1 DIV PUSH1 0xFF AND SWAP1 POP SWAP1 JUMP JUMPDEST PUSH1 0x0 PUSH1 0x60 PUSH1 0x0 PUSH1 0x1 PUSH1 0x14 SWAP1 SLOAD SWAP1 PUSH2 0x100 EXP SWAP1 DIV PUSH1 0xFF AND PUSH1 0x1 DUP2 GT ISZERO PUSH2 0x655 JUMPI PUSH2 0x654 PUSH2 0xEBB JUMP JUMPDEST JUMPDEST PUSH1 0x0 PUSH1 0x1 DUP2 GT ISZERO PUSH2 0x669 JUMPI PUSH2 0x668 PUSH2 0xEBB JUMP JUMPDEST JUMPDEST EQ SWAP1 POP PUSH1 0x0 PUSH32 0x0 PUSH1 0x2 SLOAD TIMESTAMP PUSH2 0x69D SWAP2 SWAP1 PUSH2 0x12EC JUMP JUMPDEST GT SWAP1 POP PUSH1 0x0 DUP1 PUSH1 0x0 DUP1 SLOAD SWAP1 POP GT SWAP1 POP PUSH1 0x0 DUP1 SELFBALANCE GT SWAP1 POP DUP4 DUP1 ISZERO PUSH2 0x6BD JUMPI POP DUP3 JUMPDEST DUP1 ISZERO PUSH2 0x6C6 JUMPI POP DUP2 JUMPDEST DUP1 ISZERO PUSH2 0x6CF JUMPI POP DUP1 JUMPDEST SWAP6 POP POP POP POP POP SWAP2 POP SWAP2 JUMP JUMPDEST JUMP JUMPDEST PUSH1 0x0 PUSH32 0x0 SWAP1 POP SWAP1 JUMP JUMPDEST PUSH1 0x0 PUSH32 0x0 SWAP1 POP SWAP1 JUMP JUMPDEST PUSH32 0x0 CALLVALUE LT ISZERO PUSH2 0x786 JUMPI PUSH1 0x40 MLOAD PUSH32 0xEC269FD100000000000000000000000000000000000000000000000000000000 DUP2 MSTORE PUSH1 0x4 ADD PUSH1 0x40 MLOAD DUP1 SWAP2 SUB SWAP1 REVERT JUMPDEST PUSH1 0x0 PUSH1 0x1 DUP2 GT ISZERO PUSH2 0x79A JUMPI PUSH2 0x799 PUSH2 0xEBB JUMP JUMPDEST JUMPDEST PUSH1 0x1 PUSH1 0x14 SWAP1 SLOAD SWAP1 PUSH2 0x100 EXP SWAP1 DIV PUSH1 0xFF AND PUSH1 0x1 DUP2 GT ISZERO PUSH2 0x7BC JUMPI PUSH2 0x7BB PUSH2 0xEBB JUMP JUMPDEST JUMPDEST EQ PUSH2 0x7F3 JUMPI PUSH1 0x40 MLOAD PUSH32 0xE76BE6FC00000000000000000000000000000000000000000000000000000000 DUP2 MSTORE PUSH1 0x4 ADD PUSH1 0x40 MLOAD DUP1 SWAP2 SUB SWAP1 REVERT JUMPDEST PUSH1 0x0 CALLER SWAP1 DUP1 PUSH1 0x1 DUP2 SLOAD ADD DUP1 DUP3 SSTORE DUP1 SWAP2 POP POP PUSH1 0x1 SWAP1 SUB SWAP1 PUSH1 0x0 MSTORE PUSH1 0x20 PUSH1 0x0 KECCAK256 ADD PUSH1 0x0 SWAP1 SWAP2 SWAP1 SWAP2 SWAP1 SWAP2 PUSH2 0x100 EXP DUP2 SLOAD DUP2 PUSH20 0xFFFFFFFFFFFFFFFFFFFFFFFFFFFFFFFFFFFFFFFF MUL NOT AND SWAP1 DUP4 PUSH20 0xFFFFFFFFFFFFFFFFFFFFFFFFFFFFFFFFFFFFFFFF AND MUL OR SWAP1 SSTORE POP CALLER PUSH20 0xFFFFFFFFFFFFFFFFFFFFFFFFFFFFFFFFFFFFFFFF AND PUSH32 0x1D64FB5BA9F2548C5B98468D58F25B87B9E866AFEE0122E92D9FE722BF85076C PUSH1 0x40 MLOAD PUSH1 0x40 MLOAD DUP1 SWAP2 SUB SWAP1 LOG2 JUMP JUMPDEST PUSH1 0x0 PUSH1 0x1 PUSH2 0xFFFF AND SWAP1 POP SWAP1 JUMP JUMPDEST JUMP JUMPDEST PUSH1 0x0 DUP1 DUP1 SLOAD SWAP1 POP SWAP1 POP SWAP1 JUMP JUMPDEST PUSH1 0x0 DUP1 DUP1 SLOAD SWAP1 POP DUP3 PUSH1 0x0 DUP2 MLOAD DUP2 LT PUSH2 0x8D1 JUMPI PUSH2 0x8D0 PUSH2 0x1320 JUMP JUMPDEST JUMPDEST PUSH1 0x20 MUL PUSH1 0x20 ADD ADD MLOAD PUSH2 0x8E3 SWAP2 SWAP1 PUSH2 0x137E JUMP JUMPDEST SWAP1 POP PUSH1 0x0 DUP1 DUP3 DUP2 SLOAD DUP2 LT PUSH2 0x8FA JUMPI PUSH2 0x8F9 PUSH2 0x1320 JUMP JUMPDEST JUMPDEST SWAP1 PUSH1 0x0 MSTORE PUSH1 0x20 PUSH1 0x0 KECCAK256 ADD PUSH1 0x0 SWAP1 SLOAD SWAP1 PUSH2 0x100 EXP SWAP1 DIV PUSH20 0xFFFFFFFFFFFFFFFFFFFFFFFFFFFFFFFFFFFFFFFF AND SWAP1 POP DUP1 PUSH1 0x1 PUSH1 0x0 PUSH2 0x100 EXP DUP2 SLOAD DUP2 PUSH20 0xFFFFFFFFFFFFFFFFFFFFFFFFFFFFFFFFFFFFFFFF MUL NOT AND SWAP1 DUP4 PUSH20 0xFFFFFFFFFFFFFFFFFFFFFFFFFFFFFFFFFFFFFFFF AND MUL OR SWAP1 SSTORE POP PUSH1 0x0 PUSH1 0x1 PUSH1 0x14 PUSH2 0x100 EXP DUP2 SLOAD DUP2 PUSH1 0xFF MUL NOT AND SWAP1 DUP4 PUSH1 0x1 DUP2 GT ISZERO PUSH2 0x98E JUMPI PUSH2 0x98D PUSH2 0xEBB JUMP JUMPDEST JUMPDEST MUL OR SWAP1 SSTORE POP PUSH1 0x0 PUSH8 0xFFFFFFFFFFFFFFFF DUP2 GT ISZERO PUSH2 0x9AE JUMPI PUSH2 0x9AD PUSH2 0xC18 JUMP JUMPDEST JUMPDEST PUSH1 0x40 MLOAD SWAP1 DUP1 DUP3 MSTORE DUP1 PUSH1 0x20 MUL PUSH1 0x20 ADD DUP3 ADD PUSH1 0x40 MSTORE DUP1 ISZERO PUSH2 0x9DC JUMPI DUP2 PUSH1 0x20 ADD PUSH1 0x20 DUP3 MUL DUP1 CALLDATASIZE DUP4 CALLDATACOPY DUP1 DUP3 ADD SWAP2 POP POP SWAP1 POP JUMPDEST POP PUSH1 0x0 SWAP1 DUP1 MLOAD SWAP1 PUSH1 0x20 ADD SWAP1 PUSH2 0x9F2 SWAP3 SWAP2 SWAP1 PUSH2 0xAE7 JUMP JUMPDEST POP TIMESTAMP PUSH1 0x2 DUP2 SWAP1 SSTORE POP PUSH1 0x0 DUP2 PUSH20 0xFFFFFFFFFFFFFFFFFFFFFFFFFFFFFFFFFFFFFFFF AND SELFBALANCE PUSH1 0x40 MLOAD PUSH2 0xA20 SWAP1 PUSH2 0x13E0 JUMP JUMPDEST PUSH1 0x0 PUSH1 0x40 MLOAD DUP1 DUP4 SUB DUP2 DUP6 DUP8 GAS CALL SWAP3 POP POP POP RETURNDATASIZE DUP1 PUSH1 0x0 DUP2 EQ PUSH2 0xA5D JUMPI PUSH1 0x40 MLOAD SWAP2 POP PUSH1 0x1F NOT PUSH1 0x3F RETURNDATASIZE ADD AND DUP3 ADD PUSH1 0x40 MSTORE RETURNDATASIZE DUP3 MSTORE RETURNDATASIZE PUSH1 0x0 PUSH1 0x20 DUP5 ADD RETURNDATACOPY PUSH2 0xA62 JUMP JUMPDEST PUSH1 0x60 SWAP2 POP JUMPDEST POP POP SWAP1 POP DUP1 PUSH2 0xA9D JUMPI PUSH1 0x40 MLOAD PUSH32 0x1C94012000000000000000000000000000000000000000000000000000000000 DUP2 MSTORE PUSH1 0x4 ADD PUSH1 0x40 MLOAD DUP1 SWAP2 SUB SWAP1 REVERT JUMPDEST DUP2 PUSH20 0xFFFFFFFFFFFFFFFFFFFFFFFFFFFFFFFFFFFFFFFF AND PUSH32 0x5B690EC4A06FE979403046EAEEA5B3CE38524683C3001F662C8B5A829632F7DF PUSH1 0x40 MLOAD PUSH1 0x40 MLOAD DUP1 SWAP2 SUB SWAP1 LOG2 POP POP POP POP POP JUMP JUMPDEST DUP3 DUP1 SLOAD DUP3 DUP3 SSTORE SWAP1 PUSH1 0x0 MSTORE PUSH1 0x20 PUSH1 0x0 KECCAK256 SWAP1 DUP2 ADD SWAP3 DUP3 ISZERO PUSH2 0xB60 JUMPI SWAP2 PUSH1 0x20 MUL DUP3 ADD JUMPDEST DUP3 DUP2 GT ISZERO PUSH2 0xB5F JUMPI DUP3 MLOAD DUP3 PUSH1 0x0 PUSH2 0x100 EXP DUP2 SLOAD DUP2 PUSH20 0xFFFFFFFFFFFFFFFFFFFFFFFFFFFFFFFFFFFFFFFF MUL NOT AND SWAP1 DUP4 PUSH20 0xFFFFFFFFFFFFFFFFFFFFFFFFFFFFFFFFFFFFFFFF AND MUL OR SWAP1 SSTORE POP SWAP2 PUSH1 0x20 ADD SWAP2 SWAP1 PUSH1 0x1 ADD SWAP1 PUSH2 0xB07 JUMP JUMPDEST JUMPDEST POP SWAP1 POP PUSH2 0xB6D SWAP2 SWAP1 PUSH2 0xB71 JUMP JUMPDEST POP SWAP1 JUMP JUMPDEST JUMPDEST DUP1 DUP3 GT ISZERO PUSH2 0xB8A JUMPI PUSH1 0x0 DUP2 PUSH1 0x0 SWAP1 SSTORE POP PUSH1 0x1 ADD PUSH2 0xB72 JUMP JUMPDEST POP SWAP1 JUMP JUMPDEST PUSH1 0x0 DUP2 SWAP1 POP SWAP2 SWAP1 POP JUMP JUMPDEST PUSH2 0xBA1 DUP2 PUSH2 0xB8E JUMP JUMPDEST DUP3 MSTORE POP POP JUMP JUMPDEST PUSH1 0x0 PUSH1 0x20 DUP3 ADD SWAP1 POP PUSH2 0xBBC PUSH1 0x0 DUP4 ADD DUP5 PUSH2 0xB98 JUMP JUMPDEST SWAP3 SWAP2 POP POP JUMP JUMPDEST PUSH1 0x0 PUSH1 0x40 MLOAD SWAP1 POP SWAP1 JUMP JUMPDEST PUSH1 0x0 DUP1 REVERT JUMPDEST PUSH1 0x0 DUP1 REVERT JUMPDEST PUSH2 0xBDF DUP2 PUSH2 0xB8E JUMP JUMPDEST DUP2 EQ PUSH2 0xBEA JUMPI PUSH1 0x0 DUP1 REVERT JUMPDEST POP JUMP JUMPDEST PUSH1 0x0 DUP2 CALLDATALOAD SWAP1 POP PUSH2 0xBFC DUP2 PUSH2 0xBD6 JUMP JUMPDEST SWAP3 SWAP2 POP POP JUMP JUMPDEST PUSH1 0x0 DUP1 REVERT JUMPDEST PUSH1 0x0 PUSH1 0x1F NOT PUSH1 0x1F DUP4 ADD AND SWAP1 POP SWAP2 SWAP1 POP JUMP JUMPDEST PUSH32 0x4E487B7100000000000000000000000000000000000000000000000000000000 PUSH1 0x0 MSTORE PUSH1 0x41 PUSH1 0x4 MSTORE PUSH1 0x24 PUSH1 0x0 REVERT JUMPDEST PUSH2 0xC50 DUP3 PUSH2 0xC07 JUMP JUMPDEST DUP2 ADD DUP2 DUP2 LT PUSH8 0xFFFFFFFFFFFFFFFF DUP3 GT OR ISZERO PUSH2 0xC6F JUMPI PUSH2 0xC6E PUSH2 0xC18 JUMP JUMPDEST JUMPDEST DUP1 PUSH1 0x40 MSTORE POP POP POP JUMP JUMPDEST PUSH1 0x0 PUSH2 0xC82 PUSH2 0xBC2 JUMP JUMPDEST SWAP1 POP PUSH2 0xC8E DUP3 DUP3 PUSH2 0xC47 JUMP JUMPDEST SWAP2 SWAP1 POP JUMP JUMPDEST PUSH1 0x0 PUSH8 0xFFFFFFFFFFFFFFFF DUP3 GT ISZERO PUSH2 0xCAE JUMPI PUSH2 0xCAD PUSH2 0xC18 JUMP JUMPDEST JUMPDEST PUSH1 0x20 DUP3 MUL SWAP1 POP PUSH1 0x20 DUP2 ADD SWAP1 POP SWAP2 SWAP1 POP JUMP JUMPDEST PUSH1 0x0 DUP1 REVERT JUMPDEST PUSH1 0x0 PUSH2 0xCD7 PUSH2 0xCD2 DUP5 PUSH2 0xC93 JUMP JUMPDEST PUSH2 0xC78 JUMP JUMPDEST SWAP1 POP DUP1 DUP4 DUP3 MSTORE PUSH1 0x20 DUP3 ADD SWAP1 POP PUSH1 0x20 DUP5 MUL DUP4 ADD DUP6 DUP2 GT ISZERO PUSH2 0xCFA JUMPI PUSH2 0xCF9 PUSH2 0xCBF JUMP JUMPDEST JUMPDEST DUP4 JUMPDEST DUP2 DUP2 LT ISZERO PUSH2 0xD23 JUMPI DUP1 PUSH2 0xD0F DUP9 DUP3 PUSH2 0xBED JUMP JUMPDEST DUP5 MSTORE PUSH1 0x20 DUP5 ADD SWAP4 POP POP PUSH1 0x20 DUP2 ADD SWAP1 POP PUSH2 0xCFC JUMP JUMPDEST POP POP POP SWAP4 SWAP3 POP POP POP JUMP JUMPDEST PUSH1 0x0 DUP3 PUSH1 0x1F DUP4 ADD SLT PUSH2 0xD42 JUMPI PUSH2 0xD41 PUSH2 0xC02 JUMP JUMPDEST JUMPDEST DUP2 CALLDATALOAD PUSH2 0xD52 DUP5 DUP3 PUSH1 0x20 DUP7 ADD PUSH2 0xCC4 JUMP JUMPDEST SWAP2 POP POP SWAP3 SWAP2 POP POP JUMP JUMPDEST PUSH1 0x0 DUP1 PUSH1 0x40 DUP4 DUP6 SUB SLT ISZERO PUSH2 0xD72 JUMPI PUSH2 0xD71 PUSH2 0xBCC JUMP JUMPDEST JUMPDEST PUSH1 0x0 PUSH2 0xD80 DUP6 DUP3 DUP7 ADD PUSH2 0xBED JUMP JUMPDEST SWAP3 POP POP PUSH1 0x20 DUP4 ADD CALLDATALOAD PUSH8 0xFFFFFFFFFFFFFFFF DUP2 GT ISZERO PUSH2 0xDA1 JUMPI PUSH2 0xDA0 PUSH2 0xBD1 JUMP JUMPDEST JUMPDEST PUSH2 0xDAD DUP6 DUP3 DUP7 ADD PUSH2 0xD2D JUMP JUMPDEST SWAP2 POP POP SWAP3 POP SWAP3 SWAP1 POP JUMP JUMPDEST PUSH1 0x0 DUP1 REVERT JUMPDEST PUSH1 0x0 DUP1 DUP4 PUSH1 0x1F DUP5 ADD SLT PUSH2 0xDD2 JUMPI PUSH2 0xDD1 PUSH2 0xC02 JUMP JUMPDEST JUMPDEST DUP3 CALLDATALOAD SWAP1 POP PUSH8 0xFFFFFFFFFFFFFFFF DUP2 GT ISZERO PUSH2 0xDEF JUMPI PUSH2 0xDEE PUSH2 0xDB7 JUMP JUMPDEST JUMPDEST PUSH1 0x20 DUP4 ADD SWAP2 POP DUP4 PUSH1 0x1 DUP3 MUL DUP4 ADD GT ISZERO PUSH2 0xE0B JUMPI PUSH2 0xE0A PUSH2 0xCBF JUMP JUMPDEST JUMPDEST SWAP3 POP SWAP3 SWAP1 POP JUMP JUMPDEST PUSH1 0x0 DUP1 PUSH1 0x20 DUP4 DUP6 SUB SLT ISZERO PUSH2 0xE29 JUMPI PUSH2 0xE28 PUSH2 0xBCC JUMP JUMPDEST JUMPDEST PUSH1 0x0 DUP4 ADD CALLDATALOAD PUSH8 0xFFFFFFFFFFFFFFFF DUP2 GT ISZERO PUSH2 0xE47 JUMPI PUSH2 0xE46 PUSH2 0xBD1 JUMP JUMPDEST JUMPDEST PUSH2 0xE53 DUP6 DUP3 DUP7 ADD PUSH2 0xDBC JUMP JUMPDEST SWAP3 POP SWAP3 POP POP SWAP3 POP SWAP3 SWAP1 POP JUMP JUMPDEST PUSH1 0x0 PUSH20 0xFFFFFFFFFFFFFFFFFFFFFFFFFFFFFFFFFFFFFFFF DUP3 AND SWAP1 POP SWAP2 SWAP1 POP JUMP JUMPDEST PUSH1 0x0 PUSH2 0xE8A DUP3 PUSH2 0xE5F JUMP JUMPDEST SWAP1 POP SWAP2 SWAP1 POP JUMP JUMPDEST PUSH2 0xE9A DUP2 PUSH2 0xE7F JUMP JUMPDEST DUP3 MSTORE POP POP JUMP JUMPDEST PUSH1 0x0 PUSH1 0x20 DUP3 ADD SWAP1 POP PUSH2 0xEB5 PUSH1 0x0 DUP4 ADD DUP5 PUSH2 0xE91 JUMP JUMPDEST SWAP3 SWAP2 POP POP JUMP JUMPDEST PUSH32 0x4E487B7100000000000000000000000000000000000000000000000000000000 PUSH1 0x0 MSTORE PUSH1 0x21 PUSH1 0x4 MSTORE PUSH1 0x24 PUSH1 0x0 REVERT JUMPDEST PUSH1 0x2 DUP2 LT PUSH2 0xEFB JUMPI PUSH2 0xEFA PUSH2 0xEBB JUMP JUMPDEST JUMPDEST POP JUMP JUMPDEST PUSH1 0x0 DUP2 SWAP1 POP PUSH2 0xF0C DUP3 PUSH2 0xEEA JUMP JUMPDEST SWAP2 SWAP1 POP JUMP JUMPDEST PUSH1 0x0 PUSH2 0xF1C DUP3 PUSH2 0xEFE JUMP JUMPDEST SWAP1 POP SWAP2 SWAP1 POP JUMP JUMPDEST PUSH2 0xF2C DUP2 PUSH2 0xF11 JUMP JUMPDEST DUP3 MSTORE POP POP JUMP JUMPDEST PUSH1 0x0 PUSH1 0x20 DUP3 ADD SWAP1 POP PUSH2 0xF47 PUSH1 0x0 DUP4 ADD DUP5 PUSH2 0xF23 JUMP JUMPDEST SWAP3 SWAP2 POP POP JUMP JUMPDEST PUSH1 0x0 DUP1 REVERT JUMPDEST PUSH1 0x0 PUSH8 0xFFFFFFFFFFFFFFFF DUP3 GT ISZERO PUSH2 0xF6D JUMPI PUSH2 0xF6C PUSH2 0xC18 JUMP JUMPDEST JUMPDEST PUSH2 0xF76 DUP3 PUSH2 0xC07 JUMP JUMPDEST SWAP1 POP PUSH1 0x20 DUP2 ADD SWAP1 POP SWAP2 SWAP1 POP JUMP JUMPDEST DUP3 DUP2 DUP4 CALLDATACOPY PUSH1 0x0 DUP4 DUP4 ADD MSTORE POP POP POP JUMP JUMPDEST PUSH1 0x0 PUSH2 0xFA5 PUSH2 0xFA0 DUP5 PUSH2 0xF52 JUMP JUMPDEST PUSH2 0xC78 JUMP JUMPDEST SWAP1 POP DUP3 DUP2 MSTORE PUSH1 0x20 DUP2 ADD DUP5 DUP5 DUP5 ADD GT ISZERO PUSH2 0xFC1 JUMPI PUSH2 0xFC0 PUSH2 0xF4D JUMP JUMPDEST JUMPDEST PUSH2 0xFCC DUP5 DUP3 DUP6 PUSH2 0xF83 JUMP JUMPDEST POP SWAP4 SWAP3 POP POP POP JUMP JUMPDEST PUSH1 0x0 DUP3 PUSH1 0x1F DUP4 ADD SLT PUSH2 0xFE9 JUMPI PUSH2 0xFE8 PUSH2 0xC02 JUMP JUMPDEST JUMPDEST DUP2 CALLDATALOAD PUSH2 0xFF9 DUP5 DUP3 PUSH1 0x20 DUP7 ADD PUSH2 0xF92 JUMP JUMPDEST SWAP2 POP POP SWAP3 SWAP2 POP POP JUMP JUMPDEST PUSH1 0x0 PUSH1 0x20 DUP3 DUP5 SUB SLT ISZERO PUSH2 0x1018 JUMPI PUSH2 0x1017 PUSH2 0xBCC JUMP JUMPDEST JUMPDEST PUSH1 0x0 DUP3 ADD CALLDATALOAD PUSH8 0xFFFFFFFFFFFFFFFF DUP2 GT ISZERO PUSH2 0x1036 JUMPI PUSH2 0x1035 PUSH2 0xBD1 JUMP JUMPDEST JUMPDEST PUSH2 0x1042 DUP5 DUP3 DUP6 ADD PUSH2 0xFD4 JUMP JUMPDEST SWAP2 POP POP SWAP3 SWAP2 POP POP JUMP JUMPDEST PUSH1 0x0 DUP2 ISZERO ISZERO SWAP1 POP SWAP2 SWAP1 POP JUMP JUMPDEST PUSH2 0x1060 DUP2 PUSH2 0x104B JUMP JUMPDEST DUP3 MSTORE POP POP JUMP JUMPDEST PUSH1 0x0 DUP2 MLOAD SWAP1 POP SWAP2 SWAP1 POP JUMP JUMPDEST PUSH1 0x0 DUP3 DUP3 MSTORE PUSH1 0x20 DUP3 ADD SWAP1 POP SWAP3 SWAP2 POP POP JUMP JUMPDEST PUSH1 0x0 JUMPDEST DUP4 DUP2 LT ISZERO PUSH2 0x10A0 JUMPI DUP1 DUP3 ADD MLOAD DUP2 DUP5 ADD MSTORE PUSH1 0x20 DUP2 ADD SWAP1 POP PUSH2 0x1085 JUMP JUMPDEST PUSH1 0x0 DUP5 DUP5 ADD MSTORE POP POP POP POP JUMP JUMPDEST PUSH1 0x0 PUSH2 0x10B7 DUP3 PUSH2 0x1066 JUMP JUMPDEST PUSH2 0x10C1 DUP2 DUP6 PUSH2 0x1071 JUMP JUMPDEST SWAP4 POP PUSH2 0x10D1 DUP2 DUP6 PUSH1 0x20 DUP7 ADD PUSH2 0x1082 JUMP JUMPDEST PUSH2 0x10DA DUP2 PUSH2 0xC07 JUMP JUMPDEST DUP5 ADD SWAP2 POP POP SWAP3 SWAP2 POP POP JUMP JUMPDEST PUSH1 0x0 PUSH1 0x40 DUP3 ADD SWAP1 POP PUSH2 0x10FA PUSH1 0x0 DUP4 ADD DUP6 PUSH2 0x1057 JUMP JUMPDEST DUP2 DUP2 SUB PUSH1 0x20 DUP4 ADD MSTORE PUSH2 0x110C DUP2 DUP5 PUSH2 0x10AC JUMP JUMPDEST SWAP1 POP SWAP4 SWAP3 POP POP POP JUMP JUMPDEST PUSH1 0x0 PUSH1 0x40 DUP3 ADD SWAP1 POP PUSH2 0x112A PUSH1 0x0 DUP4 ADD DUP6 PUSH2 0xE91 JUMP JUMPDEST PUSH2 0x1137 PUSH1 0x20 DUP4 ADD DUP5 PUSH2 0xE91 JUMP JUMPDEST SWAP4 SWAP3 POP POP POP JUMP JUMPDEST PUSH1 0x0 PUSH1 0x60 DUP3 ADD SWAP1 POP PUSH2 0x1153 PUSH1 0x0 DUP4 ADD DUP7 PUSH2 0xB98 JUMP JUMPDEST PUSH2 0x1160 PUSH1 0x20 DUP4 ADD DUP6 PUSH2 0xB98 JUMP JUMPDEST PUSH2 0x116D PUSH1 0x40 DUP4 ADD DUP5 PUSH2 0xB98 JUMP JUMPDEST SWAP5 SWAP4 POP POP POP POP JUMP JUMPDEST PUSH1 0x0 DUP2 SWAP1 POP SWAP2 SWAP1 POP JUMP JUMPDEST PUSH2 0x1188 DUP2 PUSH2 0x1175 JUMP JUMPDEST DUP3 MSTORE POP POP JUMP JUMPDEST PUSH1 0x0 PUSH8 0xFFFFFFFFFFFFFFFF DUP3 AND SWAP1 POP SWAP2 SWAP1 POP JUMP JUMPDEST PUSH2 0x11AB DUP2 PUSH2 0x118E JUMP JUMPDEST DUP3 MSTORE POP POP JUMP JUMPDEST PUSH1 0x0 PUSH2 0xFFFF DUP3 AND SWAP1 POP SWAP2 SWAP1 POP JUMP JUMPDEST PUSH2 0x11C8 DUP2 PUSH2 0x11B1 JUMP JUMPDEST DUP3 MSTORE POP POP JUMP JUMPDEST PUSH1 0x0 PUSH4 0xFFFFFFFF DUP3 AND SWAP1 POP SWAP2 SWAP1 POP JUMP JUMPDEST PUSH2 0x11E7 DUP2 PUSH2 0x11CE JUMP JUMPDEST DUP3 MSTORE POP POP JUMP JUMPDEST PUSH1 0x0 DUP2 SWAP1 POP SWAP2 SWAP1 POP JUMP JUMPDEST PUSH1 0x0 PUSH2 0x1212 PUSH2 0x120D PUSH2 0x1208 DUP5 PUSH2 0x11B1 JUMP JUMPDEST PUSH2 0x11ED JUMP JUMPDEST PUSH2 0x11CE JUMP JUMPDEST SWAP1 POP SWAP2 SWAP1 POP JUMP JUMPDEST PUSH2 0x1222 DUP2 PUSH2 0x11F7 JUMP JUMPDEST DUP3 MSTORE POP POP JUMP JUMPDEST PUSH1 0x0 PUSH1 0xA0 DUP3 ADD SWAP1 POP PUSH2 0x123D PUSH1 0x0 DUP4 ADD DUP9 PUSH2 0x117F JUMP JUMPDEST PUSH2 0x124A PUSH1 0x20 DUP4 ADD DUP8 PUSH2 0x11A2 JUMP JUMPDEST PUSH2 0x1257 PUSH1 0x40 DUP4 ADD DUP7 PUSH2 0x11BF JUMP JUMPDEST PUSH2 0x1264 PUSH1 0x60 DUP4 ADD DUP6 PUSH2 0x11DE JUMP JUMPDEST PUSH2 0x1271 PUSH1 0x80 DUP4 ADD DUP5 PUSH2 0x1219 JUMP JUMPDEST SWAP7 SWAP6 POP POP POP POP POP POP JUMP JUMPDEST PUSH1 0x0 DUP2 MLOAD SWAP1 POP PUSH2 0x128A DUP2 PUSH2 0xBD6 JUMP JUMPDEST SWAP3 SWAP2 POP POP JUMP JUMPDEST PUSH1 0x0 PUSH1 0x20 DUP3 DUP5 SUB SLT ISZERO PUSH2 0x12A6 JUMPI PUSH2 0x12A5 PUSH2 0xBCC JUMP JUMPDEST JUMPDEST PUSH1 0x0 PUSH2 0x12B4 DUP5 DUP3 DUP6 ADD PUSH2 0x127B JUMP JUMPDEST SWAP2 POP POP SWAP3 SWAP2 POP POP JUMP JUMPDEST PUSH32 0x4E487B7100000000000000000000000000000000000000000000000000000000 PUSH1 0x0 MSTORE PUSH1 0x11 PUSH1 0x4 MSTORE PUSH1 0x24 PUSH1 0x0 REVERT JUMPDEST PUSH1 0x0 PUSH2 0x12F7 DUP3 PUSH2 0xB8E JUMP JUMPDEST SWAP2 POP PUSH2 0x1302 DUP4 PUSH2 0xB8E JUMP JUMPDEST SWAP3 POP DUP3 DUP3 SUB SWAP1 POP DUP2 DUP2 GT ISZERO PUSH2 0x131A JUMPI PUSH2 0x1319 PUSH2 0x12BD JUMP JUMPDEST JUMPDEST SWAP3 SWAP2 POP POP JUMP JUMPDEST PUSH32 0x4E487B7100000000000000000000000000000000000000000000000000000000 PUSH1 0x0 MSTORE PUSH1 0x32 PUSH1 0x4 MSTORE PUSH1 0x24 PUSH1 0x0 REVERT JUMPDEST PUSH32 0x4E487B7100000000000000000000000000000000000000000000000000000000 PUSH1 0x0 MSTORE PUSH1 0x12 PUSH1 0x4 MSTORE PUSH1 0x24 PUSH1 0x0 REVERT JUMPDEST PUSH1 0x0 PUSH2 0x1389 DUP3 PUSH2 0xB8E JUMP JUMPDEST SWAP2 POP PUSH2 0x1394 DUP4 PUSH2 0xB8E JUMP JUMPDEST SWAP3 POP DUP3 PUSH2 0x13A4 JUMPI PUSH2 0x13A3 PUSH2 0x134F JUMP JUMPDEST JUMPDEST DUP3 DUP3 MOD SWAP1 POP SWAP3 SWAP2 POP POP JUMP JUMPDEST PUSH1 0x0 DUP2 SWAP1 POP SWAP3 SWAP2 POP POP JUMP JUMPDEST POP JUMP JUMPDEST PUSH1 0x0 PUSH2 0x13CA PUSH1 0x0 DUP4 PUSH2 0x13AF JUMP JUMPDEST SWAP2 POP PUSH2 0x13D5 DUP3 PUSH2 0x13BA JUMP JUMPDEST PUSH1 0x0 DUP3 ADD SWAP1 POP SWAP2 SWAP1 POP JUMP JUMPDEST PUSH1 0x0 PUSH2 0x13EB DUP3 PUSH2 0x13BD JUMP JUMPDEST SWAP2 POP DUP2 SWAP1 POP SWAP2 SWAP1 POP JUMP INVALID LOG2 PUSH5 0x6970667358 0x22 SLT KECCAK256 SWAP16 SWAP1 0xA9 0x5F 0x1E 0xD7 0xC6 MSTORE 0xCE EXP 0xD7 0xAC INVALID PUSH31 0xF56588EC09C41F1C1B6B3E209A58FB09008164736F6C634300081100330000 "},"gasEstimates":{"creation":{"codeDepositCost":"1032600","executionCost":"infinite","totalCost":"infinite"},"external":{"announceRandomWinner()":"210","checkUpkeep(bytes)":"infinite","enterLottery()":"infinite","getEnterenceFee()":"infinite","getInterval()":"infinite","getLatestTimeStamp()":"2505","getLotteryState()":"2707","getNumWord()":"387","getNumberOfPlayers()":"2533","getPlayer()":"167","getRecentWinner()":"2589","getRequestConformations()":"367","performUpkeep(bytes)":"infinite","pickRandomWinner()":"189","rawFulfillRandomWords(uint256,uint256[])":"infinite"},"internal":{"fulfillRandomWords(uint256,uint256[] memory)":"infinite"}},"methodIdentifiers":{"announceRandomWinner()":"dae87955","checkUpkeep(bytes)":"6e04ff0d","enterLottery()":"c1af5785","getEnterenceFee()":"b675400d","getInterval()":"91ad27b4","getLatestTimeStamp()":"320229eb","getLotteryState()":"6b68c03c","getNumWord()":"ca7eaad1","getNumberOfPlayers()":"fd6673f5","getPlayer()":"3308f42d","getRecentWinner()":"473f1ddc","getRequestConformations()":"00ae0c3f","performUpkeep(bytes)":"4585e33b","pickRandomWinner()":"898da229","rawFulfillRandomWords(uint256,uint256[])":"1fe543e3"}},"storageLayout":{"storage":[{"astId":208,"contract":"contracts/Lottery.sol:Lottery","label":"s_players","offset":0,"slot":"0","type":"t_array(t_address_payable)dyn_storage"},{"astId":227,"contract":"contracts/Lottery.sol:Lottery","label":"s_recentWinner","offset":0,"slot":"1","type":"t_address"},{"astId":230,"contract":"contracts/Lottery.sol:Lottery","label":"s_lotteryState","offset":20,"slot":"1","type":"t_enum(LotteryState)203"},{"astId":232,"contract":"contracts/Lottery.sol:Lottery","label":"s_lastTimeStamp","offset":0,"slot":"2","type":"t_uint256"}],"types":{"t_address":{"encoding":"inplace","label":"address","numberOfBytes":"20"},"t_address_payable":{"encoding":"inplace","label":"address payable","numberOfBytes":"20"},"t_array(t_address_payable)dyn_storage":{"base":"t_address_payable","encoding":"dynamic_array","label":"address payable[]","numberOfBytes":"32"},"t_enum(LotteryState)203":{"encoding":"inplace","label":"enum Lottery.LotteryState","numberOfBytes":"1"},"t_uint256":{"encoding":"inplace","label":"uint256","numberOfBytes":"32"}}},"userdoc":{"kind":"user","methods":{"checkUpkeep(bytes)":{"notice":"method that is simulated by the keepers to see if any work actually needs to be performed. This method does does not actually need to be executable, and since it is only ever simulated it can consume lots of gas."}},"version":1}}}}