{
  "_format": "hh-sol-artifact-1",
  "contractName": "Lottery",
  "sourceName": "contracts/Lottery.sol",
  "abi": [
    {
      "inputs": [
        {
          "internalType": "address",
          "name": "vrfCoordinatorV2",
          "type": "address"
        },
        {
          "internalType": "uint256",
          "name": "entranceFee",
          "type": "uint256"
        },
        {
          "internalType": "bytes32",
          "name": "gasLane",
          "type": "bytes32"
        },
        {
          "internalType": "uint64",
          "name": "subscriptionId",
          "type": "uint64"
        },
        {
          "internalType": "uint32",
          "name": "callbackGasLimit",
          "type": "uint32"
        },
        {
          "internalType": "uint256",
          "name": "interval",
          "type": "uint256"
        }
      ],
      "stateMutability": "nonpayable",
      "type": "constructor"
    },
    {
      "inputs": [],
      "name": "Lottery__NotEnoughETHEntered",
      "type": "error"
    },
    {
      "inputs": [],
      "name": "Lottery__NotOpen",
      "type": "error"
    },
    {
      "inputs": [],
      "name": "Lottery__TransferFailed",
      "type": "error"
    },
    {
      "inputs": [
        {
          "internalType": "uint256",
          "name": "currentBalance",
          "type": "uint256"
        },
        {
          "internalType": "uint256",
          "name": "numPlayers",
          "type": "uint256"
        },
        {
          "internalType": "uint256",
          "name": "raffleState",
          "type": "uint256"
        }
      ],
      "name": "Lottery__UpkeedNotNeeded",
      "type": "error"
    },
    {
      "inputs": [
        {
          "internalType": "address",
          "name": "have",
          "type": "address"
        },
        {
          "internalType": "address",
          "name": "want",
          "type": "address"
        }
      ],
      "name": "OnlyCoordinatorCanFulfill",
      "type": "error"
    },
    {
      "anonymous": false,
      "inputs": [
        {
          "indexed": true,
          "internalType": "address",
          "name": "player",
          "type": "address"
        }
      ],
      "name": "LotteryEnter",
      "type": "event"
    },
    {
      "anonymous": false,
      "inputs": [
        {
          "indexed": true,
          "internalType": "uint256",
          "name": "requestId",
          "type": "uint256"
        }
      ],
      "name": "RequestedLotteryWinner",
      "type": "event"
    },
    {
      "anonymous": false,
      "inputs": [
        {
          "indexed": true,
          "internalType": "address",
          "name": "winner",
          "type": "address"
        }
      ],
      "name": "WinnerPicked",
      "type": "event"
    },
    {
      "inputs": [],
      "name": "announceRandomWinner",
      "outputs": [],
      "stateMutability": "nonpayable",
      "type": "function"
    },
    {
      "inputs": [
        {
          "internalType": "bytes",
          "name": "checkData",
          "type": "bytes"
        }
      ],
      "name": "checkUpkeep",
      "outputs": [
        {
          "internalType": "bool",
          "name": "upkeepNeeded",
          "type": "bool"
        },
        {
          "internalType": "bytes",
          "name": "",
          "type": "bytes"
        }
      ],
      "stateMutability": "nonpayable",
      "type": "function"
    },
    {
      "inputs": [],
      "name": "enterLottery",
      "outputs": [],
      "stateMutability": "payable",
      "type": "function"
    },
    {
      "inputs": [],
      "name": "getEntranceFee",
      "outputs": [
        {
          "internalType": "uint256",
          "name": "",
          "type": "uint256"
        }
      ],
      "stateMutability": "view",
      "type": "function"
    },
    {
      "inputs": [],
      "name": "getInterval",
      "outputs": [
        {
          "internalType": "uint256",
          "name": "",
          "type": "uint256"
        }
      ],
      "stateMutability": "view",
      "type": "function"
    },
    {
      "inputs": [],
      "name": "getLatestTimeStamp",
      "outputs": [
        {
          "internalType": "uint256",
          "name": "",
          "type": "uint256"
        }
      ],
      "stateMutability": "view",
      "type": "function"
    },
    {
      "inputs": [],
      "name": "getLotteryState",
      "outputs": [
        {
          "internalType": "enum Lottery.LotteryState",
          "name": "",
          "type": "uint8"
        }
      ],
      "stateMutability": "view",
      "type": "function"
    },
    {
      "inputs": [],
      "name": "getNumWord",
      "outputs": [
        {
          "internalType": "uint256",
          "name": "",
          "type": "uint256"
        }
      ],
      "stateMutability": "pure",
      "type": "function"
    },
    {
      "inputs": [],
      "name": "getNumberOfPlayers",
      "outputs": [
        {
          "internalType": "uint256",
          "name": "",
          "type": "uint256"
        }
      ],
      "stateMutability": "view",
      "type": "function"
    },
    {
      "inputs": [
        {
          "internalType": "uint256",
          "name": "index",
          "type": "uint256"
        }
      ],
      "name": "getPlayer",
      "outputs": [
        {
          "internalType": "address",
          "name": "",
          "type": "address"
        }
      ],
      "stateMutability": "view",
      "type": "function"
    },
    {
      "inputs": [],
      "name": "getRecentWinner",
      "outputs": [
        {
          "internalType": "address",
          "name": "",
          "type": "address"
        }
      ],
      "stateMutability": "view",
      "type": "function"
    },
    {
      "inputs": [],
      "name": "getRequestConformations",
      "outputs": [
        {
          "internalType": "uint256",
          "name": "",
          "type": "uint256"
        }
      ],
      "stateMutability": "pure",
      "type": "function"
    },
    {
      "inputs": [
        {
          "internalType": "bytes",
          "name": "",
          "type": "bytes"
        }
      ],
      "name": "performUpkeep",
      "outputs": [],
      "stateMutability": "nonpayable",
      "type": "function"
    },
    {
      "inputs": [],
      "name": "pickRandomWinner",
      "outputs": [],
      "stateMutability": "nonpayable",
      "type": "function"
    },
    {
      "inputs": [
        {
          "internalType": "uint256",
          "name": "requestId",
          "type": "uint256"
        },
        {
          "internalType": "uint256[]",
          "name": "randomWords",
          "type": "uint256[]"
        }
      ],
      "name": "rawFulfillRandomWords",
      "outputs": [],
      "stateMutability": "nonpayable",
      "type": "function"
    }
  ],
  "bytecode": "0x6101606040523480156200001257600080fd5b506040516200181d3803806200181d83398181016040528101906200003891906200028d565b858073ffffffffffffffffffffffffffffffffffffffff1660808173ffffffffffffffffffffffffffffffffffffffff1681525050508460a081815250508573ffffffffffffffffffffffffffffffffffffffff1660c08173ffffffffffffffffffffffffffffffffffffffff16815250508360e081815250508267ffffffffffffffff166101008167ffffffffffffffff16815250508163ffffffff166101208163ffffffff16815250506000600160146101000a81548160ff021916908360018111156200010d576200010c62000329565b5b021790555080610140818152505050505050505062000358565b600080fd5b600073ffffffffffffffffffffffffffffffffffffffff82169050919050565b600062000159826200012c565b9050919050565b6200016b816200014c565b81146200017757600080fd5b50565b6000815190506200018b8162000160565b92915050565b6000819050919050565b620001a68162000191565b8114620001b257600080fd5b50565b600081519050620001c6816200019b565b92915050565b6000819050919050565b620001e181620001cc565b8114620001ed57600080fd5b50565b6000815190506200020181620001d6565b92915050565b600067ffffffffffffffff82169050919050565b620002268162000207565b81146200023257600080fd5b50565b60008151905062000246816200021b565b92915050565b600063ffffffff82169050919050565b62000267816200024c565b81146200027357600080fd5b50565b60008151905062000287816200025c565b92915050565b60008060008060008060c08789031215620002ad57620002ac62000127565b5b6000620002bd89828a016200017a565b9650506020620002d089828a01620001b5565b9550506040620002e389828a01620001f0565b9450506060620002f689828a0162000235565b93505060806200030989828a0162000276565b92505060a06200031c89828a01620001b5565b9150509295509295509295565b7f4e487b7100000000000000000000000000000000000000000000000000000000600052602160045260246000fd5b60805160a05160c05160e051610100516101205161014051611455620003c8600039600081816106bb01526107660152600061057f0152600061055c0152600061053b015260006104ff01526000818161035a015261078c01526000818161038001526103d401526114556000f3fe6080604052600436106100e75760003560e01c80636e04ff0d1161008a578063ca7eaad111610059578063ca7eaad11461029f578063dae87955146102ca578063e55ae4e8146102e1578063fd6673f51461031e576100e7565b80636e04ff0d14610215578063898da2291461025357806391ad27b41461026a578063c1af578514610295576100e7565b8063320229eb116100c6578063320229eb1461016b5780634585e33b14610196578063473f1ddc146101bf5780636b68c03c146101ea576100e7565b8062ae0c3f146100ec57806309bc33a7146101175780631fe543e314610142575b600080fd5b3480156100f857600080fd5b50610101610349565b60405161010e9190610c4c565b60405180910390f35b34801561012357600080fd5b5061012c610356565b6040516101399190610c4c565b60405180910390f35b34801561014e57600080fd5b5061016960048036038101906101649190610e00565b61037e565b005b34801561017757600080fd5b5061018061043e565b60405161018d9190610c4c565b60405180910390f35b3480156101a257600080fd5b506101bd60048036038101906101b89190610f11565b610448565b005b3480156101cb57600080fd5b506101d4610637565b6040516101e19190610f9b565b60405180910390f35b3480156101f657600080fd5b506101ff610661565b60405161020c919061102d565b60405180910390f35b34801561022157600080fd5b5061023c60048036038101906102379190610f11565b610678565b60405161024a9291906110e2565b60405180910390f35b34801561025f57600080fd5b50610268610760565b005b34801561027657600080fd5b5061027f610762565b60405161028c9190610c4c565b60405180910390f35b61029d61078a565b005b3480156102ab57600080fd5b506102b46108f9565b6040516102c19190610c4c565b60405180910390f35b3480156102d657600080fd5b506102df610906565b005b3480156102ed57600080fd5b5061030860048036038101906103039190611112565b610908565b6040516103159190610f9b565b60405180910390f35b34801561032a57600080fd5b5061033361094f565b6040516103409190610c4c565b60405180910390f35b6000600361ffff16905090565b60007f0000000000000000000000000000000000000000000000000000000000000000905090565b7f000000000000000000000000000000000000000000000000000000000000000073ffffffffffffffffffffffffffffffffffffffff163373ffffffffffffffffffffffffffffffffffffffff161461043057337f00000000000000000000000000000000000000000000000000000000000000006040517f1cf993f400000000000000000000000000000000000000000000000000000000815260040161042792919061113f565b60405180910390fd5b61043a828261095b565b5050565b6000600254905090565b600061046260405180602001604052806000815250610678565b509050806104d15747600080549050600160149054906101000a900460ff16600181111561049357610492610fb6565b5b6040517f36d34a4a0000000000000000000000000000000000000000000000000000000081526004016104c893929190611168565b60405180910390fd5b60018060146101000a81548160ff021916908360018111156104f6576104f5610fb6565b5b021790555060007f000000000000000000000000000000000000000000000000000000000000000073ffffffffffffffffffffffffffffffffffffffff16635d3b1d307f00000000000000000000000000000000000000000000000000000000000000007f000000000000000000000000000000000000000000000000000000000000000060037f000000000000000000000000000000000000000000000000000000000000000060016040518663ffffffff1660e01b81526004016105c0959493929190611252565b6020604051808303816000875af11580156105df573d6000803e3d6000fd5b505050506040513d601f19601f8201168201806040525081019061060391906112ba565b9050807febf56642252004c18a776f30d528e7a0ce8c5db14b6596fb6550f630c8a24c6c60405160405180910390a2505050565b6000600160009054906101000a900473ffffffffffffffffffffffffffffffffffffffff16905090565b6000600160149054906101000a900460ff16905090565b600060606000600160149054906101000a900460ff1660018111156106a05761069f610fb6565b5b600060018111156106b4576106b3610fb6565b5b14905060007f0000000000000000000000000000000000000000000000000000000000000000600254426106e89190611316565b119050600080600080549050119050600080471190508380156107085750825b80156107115750815b801561071a5750805b9550856040518060400160405280600381526020017f30783000000000000000000000000000000000000000000000000000000000008152509550955050505050915091565b565b60007f0000000000000000000000000000000000000000000000000000000000000000905090565b7f00000000000000000000000000000000000000000000000000000000000000003410156107e4576040517fec269fd100000000000000000000000000000000000000000000000000000000815260040160405180910390fd5b600060018111156107f8576107f7610fb6565b5b600160149054906101000a900460ff16600181111561081a57610819610fb6565b5b14610851576040517fe76be6fc00000000000000000000000000000000000000000000000000000000815260040160405180910390fd5b6000339080600181540180825580915050600190039060005260206000200160009091909190916101000a81548173ffffffffffffffffffffffffffffffffffffffff021916908373ffffffffffffffffffffffffffffffffffffffff1602179055503373ffffffffffffffffffffffffffffffffffffffff167f1d64fb5ba9f2548c5b98468d58f25b87b9e866afee0122e92d9fe722bf85076c60405160405180910390a2565b6000600161ffff16905090565b565b600080828154811061091d5761091c61134a565b5b9060005260206000200160009054906101000a900473ffffffffffffffffffffffffffffffffffffffff169050919050565b60008080549050905090565b60008080549050826000815181106109765761097561134a565b5b602002602001015161098891906113a8565b9050600080828154811061099f5761099e61134a565b5b9060005260206000200160009054906101000a900473ffffffffffffffffffffffffffffffffffffffff16905080600160006101000a81548173ffffffffffffffffffffffffffffffffffffffff021916908373ffffffffffffffffffffffffffffffffffffffff1602179055506000600160146101000a81548160ff02191690836001811115610a3357610a32610fb6565b5b0217905550600067ffffffffffffffff811115610a5357610a52610cbd565b5b604051908082528060200260200182016040528015610a815781602001602082028036833780820191505090505b5060009080519060200190610a97929190610b8c565b504260028190555060008173ffffffffffffffffffffffffffffffffffffffff1647604051610ac59061140a565b60006040518083038185875af1925050503d8060008114610b02576040519150601f19603f3d011682016040523d82523d6000602084013e610b07565b606091505b5050905080610b42576040517f1c94012000000000000000000000000000000000000000000000000000000000815260040160405180910390fd5b8173ffffffffffffffffffffffffffffffffffffffff167f5b690ec4a06fe979403046eaeea5b3ce38524683c3001f662c8b5a829632f7df60405160405180910390a25050505050565b828054828255906000526020600020908101928215610c05579160200282015b82811115610c045782518260006101000a81548173ffffffffffffffffffffffffffffffffffffffff021916908373ffffffffffffffffffffffffffffffffffffffff16021790555091602001919060010190610bac565b5b509050610c129190610c16565b5090565b5b80821115610c2f576000816000905550600101610c17565b5090565b6000819050919050565b610c4681610c33565b82525050565b6000602082019050610c616000830184610c3d565b92915050565b6000604051905090565b600080fd5b600080fd5b610c8481610c33565b8114610c8f57600080fd5b50565b600081359050610ca181610c7b565b92915050565b600080fd5b6000601f19601f8301169050919050565b7f4e487b7100000000000000000000000000000000000000000000000000000000600052604160045260246000fd5b610cf582610cac565b810181811067ffffffffffffffff82111715610d1457610d13610cbd565b5b80604052505050565b6000610d27610c67565b9050610d338282610cec565b919050565b600067ffffffffffffffff821115610d5357610d52610cbd565b5b602082029050602081019050919050565b600080fd5b6000610d7c610d7784610d38565b610d1d565b90508083825260208201905060208402830185811115610d9f57610d9e610d64565b5b835b81811015610dc85780610db48882610c92565b845260208401935050602081019050610da1565b5050509392505050565b600082601f830112610de757610de6610ca7565b5b8135610df7848260208601610d69565b91505092915050565b60008060408385031215610e1757610e16610c71565b5b6000610e2585828601610c92565b925050602083013567ffffffffffffffff811115610e4657610e45610c76565b5b610e5285828601610dd2565b9150509250929050565b600080fd5b600067ffffffffffffffff821115610e7c57610e7b610cbd565b5b610e8582610cac565b9050602081019050919050565b82818337600083830152505050565b6000610eb4610eaf84610e61565b610d1d565b905082815260208101848484011115610ed057610ecf610e5c565b5b610edb848285610e92565b509392505050565b600082601f830112610ef857610ef7610ca7565b5b8135610f08848260208601610ea1565b91505092915050565b600060208284031215610f2757610f26610c71565b5b600082013567ffffffffffffffff811115610f4557610f44610c76565b5b610f5184828501610ee3565b91505092915050565b600073ffffffffffffffffffffffffffffffffffffffff82169050919050565b6000610f8582610f5a565b9050919050565b610f9581610f7a565b82525050565b6000602082019050610fb06000830184610f8c565b92915050565b7f4e487b7100000000000000000000000000000000000000000000000000000000600052602160045260246000fd5b60028110610ff657610ff5610fb6565b5b50565b600081905061100782610fe5565b919050565b600061101782610ff9565b9050919050565b6110278161100c565b82525050565b6000602082019050611042600083018461101e565b92915050565b60008115159050919050565b61105d81611048565b82525050565b600081519050919050565b600082825260208201905092915050565b60005b8381101561109d578082015181840152602081019050611082565b60008484015250505050565b60006110b482611063565b6110be818561106e565b93506110ce81856020860161107f565b6110d781610cac565b840191505092915050565b60006040820190506110f76000830185611054565b818103602083015261110981846110a9565b90509392505050565b60006020828403121561112857611127610c71565b5b600061113684828501610c92565b91505092915050565b60006040820190506111546000830185610f8c565b6111616020830184610f8c565b9392505050565b600060608201905061117d6000830186610c3d565b61118a6020830185610c3d565b6111976040830184610c3d565b949350505050565b6000819050919050565b6111b28161119f565b82525050565b600067ffffffffffffffff82169050919050565b6111d5816111b8565b82525050565b600061ffff82169050919050565b6111f2816111db565b82525050565b600063ffffffff82169050919050565b611211816111f8565b82525050565b6000819050919050565b600061123c611237611232846111db565b611217565b6111f8565b9050919050565b61124c81611221565b82525050565b600060a08201905061126760008301886111a9565b61127460208301876111cc565b61128160408301866111e9565b61128e6060830185611208565b61129b6080830184611243565b9695505050505050565b6000815190506112b481610c7b565b92915050565b6000602082840312156112d0576112cf610c71565b5b60006112de848285016112a5565b91505092915050565b7f4e487b7100000000000000000000000000000000000000000000000000000000600052601160045260246000fd5b600061132182610c33565b915061132c83610c33565b9250828203905081811115611344576113436112e7565b5b92915050565b7f4e487b7100000000000000000000000000000000000000000000000000000000600052603260045260246000fd5b7f4e487b7100000000000000000000000000000000000000000000000000000000600052601260045260246000fd5b60006113b382610c33565b91506113be83610c33565b9250826113ce576113cd611379565b5b828206905092915050565b600081905092915050565b50565b60006113f46000836113d9565b91506113ff826113e4565b600082019050919050565b6000611415826113e7565b915081905091905056fea2646970667358221220707178816b22deec395e28f72f27e14ba4bbba4d5b912784511dfdfb9ed6899e64736f6c63430008110033",
  "linkReferences": {},
  "deployedLinkReferences": {}
}