{
  "_format": "hh-sol-artifact-1",
  "contractName": "Lottery",
  "sourceName": "contracts/Lottery.sol",
  "abi": [
    {
      "inputs": [
        {
          "internalType": "address",
          "name": "vrfCoordinatorV2",
          "type": "address"
        },
        {
          "internalType": "uint256",
          "name": "entranceFee",
          "type": "uint256"
        },
        {
          "internalType": "bytes32",
          "name": "gasLane",
          "type": "bytes32"
        },
        {
          "internalType": "uint64",
          "name": "subscriptionId",
          "type": "uint64"
        },
        {
          "internalType": "uint32",
          "name": "callbackGasLimit",
          "type": "uint32"
        },
        {
          "internalType": "uint256",
          "name": "interval",
          "type": "uint256"
        }
      ],
      "stateMutability": "nonpayable",
      "type": "constructor"
    },
    {
      "inputs": [],
      "name": "Lottery__NotEnoughETHEntered",
      "type": "error"
    },
    {
      "inputs": [],
      "name": "Lottery__NotOpen",
      "type": "error"
    },
    {
      "inputs": [],
      "name": "Lottery__TransferFailed",
      "type": "error"
    },
    {
      "inputs": [
        {
          "internalType": "uint256",
          "name": "currentBalance",
          "type": "uint256"
        },
        {
          "internalType": "uint256",
          "name": "numPlayers",
          "type": "uint256"
        },
        {
          "internalType": "uint256",
          "name": "raffleState",
          "type": "uint256"
        }
      ],
      "name": "Lottery__UpkeedNotNeeded",
      "type": "error"
    },
    {
      "inputs": [
        {
          "internalType": "address",
          "name": "have",
          "type": "address"
        },
        {
          "internalType": "address",
          "name": "want",
          "type": "address"
        }
      ],
      "name": "OnlyCoordinatorCanFulfill",
      "type": "error"
    },
    {
      "anonymous": false,
      "inputs": [
        {
          "indexed": true,
          "internalType": "address",
          "name": "player",
          "type": "address"
        }
      ],
      "name": "LotteryEnter",
      "type": "event"
    },
    {
      "anonymous": false,
      "inputs": [
        {
          "indexed": true,
          "internalType": "uint256",
          "name": "requesdId",
          "type": "uint256"
        }
      ],
      "name": "RequestedLotteryWinner",
      "type": "event"
    },
    {
      "anonymous": false,
      "inputs": [
        {
          "indexed": true,
          "internalType": "address",
          "name": "winner",
          "type": "address"
        }
      ],
      "name": "WinnerPicked",
      "type": "event"
    },
    {
      "inputs": [],
      "name": "announceRandomWinner",
      "outputs": [],
      "stateMutability": "nonpayable",
      "type": "function"
    },
    {
      "inputs": [
        {
          "internalType": "bytes",
          "name": "checkData",
          "type": "bytes"
        }
      ],
      "name": "checkUpkeep",
      "outputs": [
        {
          "internalType": "bool",
          "name": "upkeepNeeded",
          "type": "bool"
        },
        {
          "internalType": "bytes",
          "name": "performData",
          "type": "bytes"
        }
      ],
      "stateMutability": "view",
      "type": "function"
    },
    {
      "inputs": [],
      "name": "enterLottery",
      "outputs": [],
      "stateMutability": "payable",
      "type": "function"
    },
    {
      "inputs": [],
      "name": "getEnterenceFee",
      "outputs": [
        {
          "internalType": "uint256",
          "name": "",
          "type": "uint256"
        }
      ],
      "stateMutability": "view",
      "type": "function"
    },
    {
      "inputs": [],
      "name": "getInterval",
      "outputs": [
        {
          "internalType": "uint256",
          "name": "",
          "type": "uint256"
        }
      ],
      "stateMutability": "view",
      "type": "function"
    },
    {
      "inputs": [],
      "name": "getLatestTimeStamp",
      "outputs": [
        {
          "internalType": "uint256",
          "name": "",
          "type": "uint256"
        }
      ],
      "stateMutability": "view",
      "type": "function"
    },
    {
      "inputs": [],
      "name": "getLotteryState",
      "outputs": [
        {
          "internalType": "enum Lottery.LotteryState",
          "name": "",
          "type": "uint8"
        }
      ],
      "stateMutability": "view",
      "type": "function"
    },
    {
      "inputs": [],
      "name": "getNumWord",
      "outputs": [
        {
          "internalType": "uint256",
          "name": "",
          "type": "uint256"
        }
      ],
      "stateMutability": "pure",
      "type": "function"
    },
    {
      "inputs": [],
      "name": "getNumberOfPlayers",
      "outputs": [
        {
          "internalType": "uint256",
          "name": "",
          "type": "uint256"
        }
      ],
      "stateMutability": "view",
      "type": "function"
    },
    {
      "inputs": [],
      "name": "getPlayer",
      "outputs": [],
      "stateMutability": "nonpayable",
      "type": "function"
    },
    {
      "inputs": [],
      "name": "getRecentWinner",
      "outputs": [
        {
          "internalType": "address",
          "name": "",
          "type": "address"
        }
      ],
      "stateMutability": "view",
      "type": "function"
    },
    {
      "inputs": [],
      "name": "getRequestConformations",
      "outputs": [
        {
          "internalType": "uint256",
          "name": "",
          "type": "uint256"
        }
      ],
      "stateMutability": "pure",
      "type": "function"
    },
    {
      "inputs": [
        {
          "internalType": "bytes",
          "name": "",
          "type": "bytes"
        }
      ],
      "name": "performUpkeep",
      "outputs": [],
      "stateMutability": "nonpayable",
      "type": "function"
    },
    {
      "inputs": [],
      "name": "pickRandomWinner",
      "outputs": [],
      "stateMutability": "nonpayable",
      "type": "function"
    },
    {
      "inputs": [
        {
          "internalType": "uint256",
          "name": "requestId",
          "type": "uint256"
        },
        {
          "internalType": "uint256[]",
          "name": "randomWords",
          "type": "uint256[]"
        }
      ],
      "name": "rawFulfillRandomWords",
      "outputs": [],
      "stateMutability": "nonpayable",
      "type": "function"
    }
  ],
  "bytecode": "0x6101606040523480156200001257600080fd5b50604051620017f3380380620017f383398181016040528101906200003891906200028d565b858073ffffffffffffffffffffffffffffffffffffffff1660808173ffffffffffffffffffffffffffffffffffffffff1681525050508460a081815250508573ffffffffffffffffffffffffffffffffffffffff1660c08173ffffffffffffffffffffffffffffffffffffffff16815250508360e081815250508267ffffffffffffffff166101008167ffffffffffffffff16815250508163ffffffff166101208163ffffffff16815250506000600160146101000a81548160ff021916908360018111156200010d576200010c62000329565b5b021790555080610140818152505050505050505062000358565b600080fd5b600073ffffffffffffffffffffffffffffffffffffffff82169050919050565b600062000159826200012c565b9050919050565b6200016b816200014c565b81146200017757600080fd5b50565b6000815190506200018b8162000160565b92915050565b6000819050919050565b620001a68162000191565b8114620001b257600080fd5b50565b600081519050620001c6816200019b565b92915050565b6000819050919050565b620001e181620001cc565b8114620001ed57600080fd5b50565b6000815190506200020181620001d6565b92915050565b600067ffffffffffffffff82169050919050565b620002268162000207565b81146200023257600080fd5b50565b60008151905062000246816200021b565b92915050565b600063ffffffff82169050919050565b62000267816200024c565b81146200027357600080fd5b50565b60008151905062000287816200025c565b92915050565b60008060008060008060c08789031215620002ad57620002ac62000127565b5b6000620002bd89828a016200017a565b9650506020620002d089828a01620001b5565b9550506040620002e389828a01620001f0565b9450506060620002f689828a0162000235565b93505060806200030989828a0162000276565b92505060a06200031c89828a01620001b5565b9150509295509295509295565b7f4e487b7100000000000000000000000000000000000000000000000000000000600052602160045260246000fd5b60805160a05160c05160e05161010051610120516101405161142b620003c86000396000818161067001526106e00152600061053301526000610510015260006104ef015260006104b3015260008181610708015261072e0152600081816103320152610386015261142b6000f3fe6080604052600436106100e75760003560e01c80636e04ff0d1161008a578063c1af578511610059578063c1af5785146102ac578063ca7eaad1146102b6578063dae87955146102e1578063fd6673f5146102f8576100e7565b80636e04ff0d14610201578063898da2291461023f57806391ad27b414610256578063b675400d14610281576100e7565b80633308f42d116100c65780633308f42d1461016b5780634585e33b14610182578063473f1ddc146101ab5780636b68c03c146101d6576100e7565b8062ae0c3f146100ec5780631fe543e314610117578063320229eb14610140575b600080fd5b3480156100f857600080fd5b50610101610323565b60405161010e9190610ba7565b60405180910390f35b34801561012357600080fd5b5061013e60048036038101906101399190610d5b565b610330565b005b34801561014c57600080fd5b506101556103f0565b6040516101629190610ba7565b60405180910390f35b34801561017757600080fd5b506101806103fa565b005b34801561018e57600080fd5b506101a960048036038101906101a49190610e12565b6103fc565b005b3480156101b757600080fd5b506101c06105ec565b6040516101cd9190610ea0565b60405180910390f35b3480156101e257600080fd5b506101eb610616565b6040516101f89190610f32565b60405180910390f35b34801561020d57600080fd5b5061022860048036038101906102239190611002565b61062d565b6040516102369291906110e5565b60405180910390f35b34801561024b57600080fd5b506102546106da565b005b34801561026257600080fd5b5061026b6106dc565b6040516102789190610ba7565b60405180910390f35b34801561028d57600080fd5b50610296610704565b6040516102a39190610ba7565b60405180910390f35b6102b461072c565b005b3480156102c257600080fd5b506102cb61089b565b6040516102d89190610ba7565b60405180910390f35b3480156102ed57600080fd5b506102f66108a8565b005b34801561030457600080fd5b5061030d6108aa565b60405161031a9190610ba7565b60405180910390f35b6000600361ffff16905090565b7f000000000000000000000000000000000000000000000000000000000000000073ffffffffffffffffffffffffffffffffffffffff163373ffffffffffffffffffffffffffffffffffffffff16146103e257337f00000000000000000000000000000000000000000000000000000000000000006040517f1cf993f40000000000000000000000000000000000000000000000000000000081526004016103d9929190611115565b60405180910390fd5b6103ec82826108b6565b5050565b6000600254905090565b565b60006104166040518060200160405280600081525061062d565b509050806104855747600080549050600160149054906101000a900460ff16600181111561044757610446610ebb565b5b6040517f36d34a4a00000000000000000000000000000000000000000000000000000000815260040161047c9392919061113e565b60405180910390fd5b60018060146101000a81548160ff021916908360018111156104aa576104a9610ebb565b5b021790555060007f000000000000000000000000000000000000000000000000000000000000000073ffffffffffffffffffffffffffffffffffffffff16635d3b1d307f00000000000000000000000000000000000000000000000000000000000000007f000000000000000000000000000000000000000000000000000000000000000060037f000000000000000000000000000000000000000000000000000000000000000060016040518663ffffffff1660e01b8152600401610574959493929190611228565b6020604051808303816000875af1158015610593573d6000803e3d6000fd5b505050506040513d601f19601f820116820180604052508101906105b79190611290565b9050807febf56642252004c18a776f30d528e7a0ce8c5db14b6596fb6550f630c8a24c6c60405160405180910390a250505050565b6000600160009054906101000a900473ffffffffffffffffffffffffffffffffffffffff16905090565b6000600160149054906101000a900460ff16905090565b600060606000600160149054906101000a900460ff16600181111561065557610654610ebb565b5b6000600181111561066957610668610ebb565b5b14905060007f00000000000000000000000000000000000000000000000000000000000000006002544261069d91906112ec565b119050600080600080549050119050600080471190508380156106bd5750825b80156106c65750815b80156106cf5750805b955050505050915091565b565b60007f0000000000000000000000000000000000000000000000000000000000000000905090565b60007f0000000000000000000000000000000000000000000000000000000000000000905090565b7f0000000000000000000000000000000000000000000000000000000000000000341015610786576040517fec269fd100000000000000000000000000000000000000000000000000000000815260040160405180910390fd5b6000600181111561079a57610799610ebb565b5b600160149054906101000a900460ff1660018111156107bc576107bb610ebb565b5b146107f3576040517fe76be6fc00000000000000000000000000000000000000000000000000000000815260040160405180910390fd5b6000339080600181540180825580915050600190039060005260206000200160009091909190916101000a81548173ffffffffffffffffffffffffffffffffffffffff021916908373ffffffffffffffffffffffffffffffffffffffff1602179055503373ffffffffffffffffffffffffffffffffffffffff167f1d64fb5ba9f2548c5b98468d58f25b87b9e866afee0122e92d9fe722bf85076c60405160405180910390a2565b6000600161ffff16905090565b565b60008080549050905090565b60008080549050826000815181106108d1576108d0611320565b5b60200260200101516108e3919061137e565b905060008082815481106108fa576108f9611320565b5b9060005260206000200160009054906101000a900473ffffffffffffffffffffffffffffffffffffffff16905080600160006101000a81548173ffffffffffffffffffffffffffffffffffffffff021916908373ffffffffffffffffffffffffffffffffffffffff1602179055506000600160146101000a81548160ff0219169083600181111561098e5761098d610ebb565b5b0217905550600067ffffffffffffffff8111156109ae576109ad610c18565b5b6040519080825280602002602001820160405280156109dc5781602001602082028036833780820191505090505b50600090805190602001906109f2929190610ae7565b504260028190555060008173ffffffffffffffffffffffffffffffffffffffff1647604051610a20906113e0565b60006040518083038185875af1925050503d8060008114610a5d576040519150601f19603f3d011682016040523d82523d6000602084013e610a62565b606091505b5050905080610a9d576040517f1c94012000000000000000000000000000000000000000000000000000000000815260040160405180910390fd5b8173ffffffffffffffffffffffffffffffffffffffff167f5b690ec4a06fe979403046eaeea5b3ce38524683c3001f662c8b5a829632f7df60405160405180910390a25050505050565b828054828255906000526020600020908101928215610b60579160200282015b82811115610b5f5782518260006101000a81548173ffffffffffffffffffffffffffffffffffffffff021916908373ffffffffffffffffffffffffffffffffffffffff16021790555091602001919060010190610b07565b5b509050610b6d9190610b71565b5090565b5b80821115610b8a576000816000905550600101610b72565b5090565b6000819050919050565b610ba181610b8e565b82525050565b6000602082019050610bbc6000830184610b98565b92915050565b6000604051905090565b600080fd5b600080fd5b610bdf81610b8e565b8114610bea57600080fd5b50565b600081359050610bfc81610bd6565b92915050565b600080fd5b6000601f19601f8301169050919050565b7f4e487b7100000000000000000000000000000000000000000000000000000000600052604160045260246000fd5b610c5082610c07565b810181811067ffffffffffffffff82111715610c6f57610c6e610c18565b5b80604052505050565b6000610c82610bc2565b9050610c8e8282610c47565b919050565b600067ffffffffffffffff821115610cae57610cad610c18565b5b602082029050602081019050919050565b600080fd5b6000610cd7610cd284610c93565b610c78565b90508083825260208201905060208402830185811115610cfa57610cf9610cbf565b5b835b81811015610d235780610d0f8882610bed565b845260208401935050602081019050610cfc565b5050509392505050565b600082601f830112610d4257610d41610c02565b5b8135610d52848260208601610cc4565b91505092915050565b60008060408385031215610d7257610d71610bcc565b5b6000610d8085828601610bed565b925050602083013567ffffffffffffffff811115610da157610da0610bd1565b5b610dad85828601610d2d565b9150509250929050565b600080fd5b60008083601f840112610dd257610dd1610c02565b5b8235905067ffffffffffffffff811115610def57610dee610db7565b5b602083019150836001820283011115610e0b57610e0a610cbf565b5b9250929050565b60008060208385031215610e2957610e28610bcc565b5b600083013567ffffffffffffffff811115610e4757610e46610bd1565b5b610e5385828601610dbc565b92509250509250929050565b600073ffffffffffffffffffffffffffffffffffffffff82169050919050565b6000610e8a82610e5f565b9050919050565b610e9a81610e7f565b82525050565b6000602082019050610eb56000830184610e91565b92915050565b7f4e487b7100000000000000000000000000000000000000000000000000000000600052602160045260246000fd5b60028110610efb57610efa610ebb565b5b50565b6000819050610f0c82610eea565b919050565b6000610f1c82610efe565b9050919050565b610f2c81610f11565b82525050565b6000602082019050610f476000830184610f23565b92915050565b600080fd5b600067ffffffffffffffff821115610f6d57610f6c610c18565b5b610f7682610c07565b9050602081019050919050565b82818337600083830152505050565b6000610fa5610fa084610f52565b610c78565b905082815260208101848484011115610fc157610fc0610f4d565b5b610fcc848285610f83565b509392505050565b600082601f830112610fe957610fe8610c02565b5b8135610ff9848260208601610f92565b91505092915050565b60006020828403121561101857611017610bcc565b5b600082013567ffffffffffffffff81111561103657611035610bd1565b5b61104284828501610fd4565b91505092915050565b60008115159050919050565b6110608161104b565b82525050565b600081519050919050565b600082825260208201905092915050565b60005b838110156110a0578082015181840152602081019050611085565b60008484015250505050565b60006110b782611066565b6110c18185611071565b93506110d1818560208601611082565b6110da81610c07565b840191505092915050565b60006040820190506110fa6000830185611057565b818103602083015261110c81846110ac565b90509392505050565b600060408201905061112a6000830185610e91565b6111376020830184610e91565b9392505050565b60006060820190506111536000830186610b98565b6111606020830185610b98565b61116d6040830184610b98565b949350505050565b6000819050919050565b61118881611175565b82525050565b600067ffffffffffffffff82169050919050565b6111ab8161118e565b82525050565b600061ffff82169050919050565b6111c8816111b1565b82525050565b600063ffffffff82169050919050565b6111e7816111ce565b82525050565b6000819050919050565b600061121261120d611208846111b1565b6111ed565b6111ce565b9050919050565b611222816111f7565b82525050565b600060a08201905061123d600083018861117f565b61124a60208301876111a2565b61125760408301866111bf565b61126460608301856111de565b6112716080830184611219565b9695505050505050565b60008151905061128a81610bd6565b92915050565b6000602082840312156112a6576112a5610bcc565b5b60006112b48482850161127b565b91505092915050565b7f4e487b7100000000000000000000000000000000000000000000000000000000600052601160045260246000fd5b60006112f782610b8e565b915061130283610b8e565b925082820390508181111561131a576113196112bd565b5b92915050565b7f4e487b7100000000000000000000000000000000000000000000000000000000600052603260045260246000fd5b7f4e487b7100000000000000000000000000000000000000000000000000000000600052601260045260246000fd5b600061138982610b8e565b915061139483610b8e565b9250826113a4576113a361134f565b5b828206905092915050565b600081905092915050565b50565b60006113ca6000836113af565b91506113d5826113ba565b600082019050919050565b60006113eb826113bd565b915081905091905056fea26469706673582212209f90a95f1ed7c652ce0ad7acfe7ef56588ec09c41f1c1b6b3e209a58fb09008164736f6c63430008110033",
  "linkReferences": {},
  "deployedLinkReferences": {}
}